{
  "address": "0x1B6baEAcdfa816b782884BF49D3eAc9AD1f5a383",
  "abi": [
    {
      "inputs": [
        {
          "internalType": "address",
          "name": "randomServiceAddress",
          "type": "address"
        }
      ],
      "stateMutability": "nonpayable",
      "type": "constructor"
    },
    {
      "anonymous": false,
      "inputs": [
        {
          "indexed": false,
          "internalType": "uint256",
          "name": "eventId",
          "type": "uint256"
        },
        {
          "indexed": false,
          "internalType": "uint32",
          "name": "requestedId",
          "type": "uint32"
        }
      ],
      "name": "RequestedRandomId",
      "type": "event"
    },
    {
      "inputs": [],
      "name": "_randomNumbers",
      "outputs": [
        {
          "internalType": "contract IRNG",
          "name": "",
          "type": "address"
        }
      ],
      "stateMutability": "view",
      "type": "function"
    },
    {
      "inputs": [
        {
          "internalType": "uint256",
          "name": "eventId",
          "type": "uint256"
        }
      ],
      "name": "getEventResult",
      "outputs": [
        {
          "internalType": "uint256",
          "name": "",
          "type": "uint256"
        }
      ],
      "stateMutability": "nonpayable",
      "type": "function"
    },
    {
      "inputs": [
        {
          "internalType": "uint256",
          "name": "eventId",
          "type": "uint256"
        }
      ],
      "name": "getResult",
      "outputs": [
        {
          "internalType": "uint256",
          "name": "",
          "type": "uint256"
        }
      ],
      "stateMutability": "view",
      "type": "function"
    },
    {
      "inputs": [
        {
          "internalType": "uint32",
          "name": "requestId",
          "type": "uint32"
        }
      ],
      "name": "isRequestComplete",
      "outputs": [
        {
          "internalType": "bool",
          "name": "isCompleted",
          "type": "bool"
        }
      ],
      "stateMutability": "view",
      "type": "function"
    },
    {
      "inputs": [
        {
          "internalType": "uint256",
          "name": "eventId",
          "type": "uint256"
        }
      ],
      "name": "requestRandomNumber",
      "outputs": [],
      "stateMutability": "nonpayable",
      "type": "function"
    },
    {
      "inputs": [
        {
          "internalType": "uint256",
          "name": "",
          "type": "uint256"
        }
      ],
      "name": "requested",
      "outputs": [
        {
          "internalType": "uint32",
          "name": "",
          "type": "uint32"
        }
      ],
      "stateMutability": "view",
      "type": "function"
    }
  ],
  "transactionHash": "0x9ccd27ee20d23e5edca7f43d2964635b10bba9deaa81128e66d584b8d601eb13",
  "args": [
    "0xD45CabbB6e3780Bf754584D6D9D9CB180cfD9f55"
  ],
  "numDeployments": 3,
  "solcInputHash": "7d5fd9185b71222a0b645a4f345e6a0d",
  "bytecode": "0x608060405234801561001057600080fd5b5060405161050a38038061050a83398101604081905261002f91610054565b600080546001600160a01b0319166001600160a01b0392909216919091179055610084565b60006020828403121561006657600080fd5b81516001600160a01b038116811461007d57600080fd5b9392505050565b610477806100936000396000f3fe608060405234801561001057600080fd5b50600436106100625760003560e01c8063246127f6146100675780633a19b9bc14610097578063995e4339146100ba578063b1eb96c9146100db578063c60d2d8f146100f0578063e65a57f11461010b575b600080fd5b60005461007a906001600160a01b031681565b6040516001600160a01b0390911681526020015b60405180910390f35b6100aa6100a53660046103b3565b610146565b604051901515815260200161008e565b6100cd6100c8366004610381565b6101ce565b60405190815260200161008e565b6100ee6100e9366004610381565b610278565b005b6100cd6100fe366004610381565b6000526001602052600290565b610131610119366004610381565b60016020526000908152604090205463ffffffff1681565b60405163ffffffff909116815260200161008e565b60008054604051630e866e6f60e21b815263ffffffff841660048201526001600160a01b0390911690633a19b9bc9060240160206040518083038186803b15801561019057600080fd5b505afa1580156101a4573d6000803e3d6000fd5b505050506040513d601f19601f820116820180604052508101906101c89190610358565b92915050565b60008181526001602052604080822054825491516389e433dd60e01b815263ffffffff909116600482018190529183916001600160a01b03909116906389e433dd9060240160206040518083038186803b15801561022b57600080fd5b505afa15801561023f573d6000803e3d6000fd5b505050506040513d601f19601f82011682018060405250810190610263919061039a565b905061027060038261040a565b949350505050565b600080546040805163433c53d960e11b815281516001600160a01b0390931692638678a7b29260048084019391929182900301818787803b1580156102bc57600080fd5b505af11580156102d0573d6000803e3d6000fd5b505050506040513d601f19601f820116820180604052508101906102f491906103d0565b50600083815260016020908152604091829020805463ffffffff191663ffffffff85169081179091558251868152918201529192507f4b9b5428e66a78623910c7984ea09e57801b0e0356a083933c319250adcef975910160405180910390a15050565b60006020828403121561036a57600080fd5b8151801515811461037a57600080fd5b9392505050565b60006020828403121561039357600080fd5b5035919050565b6000602082840312156103ac57600080fd5b5051919050565b6000602082840312156103c557600080fd5b813561037a8161042c565b600080604083850312156103e357600080fd5b82516103ee8161042c565b60208401519092506103ff8161042c565b809150509250929050565b60008261042757634e487b7160e01b600052601260045260246000fd5b500690565b63ffffffff8116811461043e57600080fd5b5056fea2646970667358221220a0af5302a50ec8d93fb440ad61ecab739495ce051c1802edf958aaa04f32a47a64736f6c63430008060033",
  "devdoc": {
    "kind": "dev",
    "methods": {},
    "version": 1
  },
  "userdoc": {
    "kind": "user",
    "methods": {},
    "version": 1
  },
  "storageLayout": {
    "storage": [
      {
        "astId": 6,
        "contract": "contracts/Oracle.sol:Oracle",
        "label": "_randomNumbers",
        "offset": 0,
        "slot": "0",
        "type": "t_contract(IRNG)169"
      },
      {
        "astId": 16,
        "contract": "contracts/Oracle.sol:Oracle",
        "label": "requested",
        "offset": 0,
        "slot": "1",
        "type": "t_mapping(t_uint256,t_uint32)"
      }
    ],
    "types": {
      "t_contract(IRNG)169": {
        "encoding": "inplace",
        "label": "contract IRNG",
        "numberOfBytes": "20"
      },
      "t_mapping(t_uint256,t_uint32)": {
        "encoding": "mapping",
        "key": "t_uint256",
        "label": "mapping(uint256 => uint32)",
        "numberOfBytes": "32",
        "value": "t_uint32"
      },
      "t_uint256": {
        "encoding": "inplace",
        "label": "uint256",
        "numberOfBytes": "32"
      },
      "t_uint32": {
        "encoding": "inplace",
        "label": "uint32",
        "numberOfBytes": "4"
      }
    }
  }
}