{
  "address": "0x4809830c07192087f0F4Def682EAB2BB47d78039",
  "abi": [
    {
      "inputs": [
        {
          "internalType": "address",
          "name": "_token",
          "type": "address"
        },
        {
          "internalType": "address",
          "name": "_ngo",
          "type": "address"
        },
        {
          "internalType": "address",
          "name": "_oracle",
          "type": "address"
        },
        {
          "internalType": "uint256",
          "name": "_ngoDonationPercentage",
          "type": "uint256"
        },
        {
          "internalType": "uint256",
          "name": "_maxEvents",
          "type": "uint256"
        },
        {
          "internalType": "uint256",
          "name": "_minWinnerPoints",
          "type": "uint256"
        }
      ],
      "stateMutability": "nonpayable",
      "type": "constructor"
    },
    {
      "anonymous": false,
      "inputs": [
        {
          "indexed": false,
          "internalType": "uint256",
          "name": "eventId",
          "type": "uint256"
        },
        {
          "indexed": true,
          "internalType": "address",
          "name": "who",
          "type": "address"
        },
        {
          "indexed": false,
          "internalType": "enum IProde.BetOdd",
          "name": "bet",
          "type": "uint8"
        },
        {
          "indexed": false,
          "internalType": "uint256",
          "name": "amount",
          "type": "uint256"
        }
      ],
      "name": "BetPlaced",
      "type": "event"
    },
    {
      "anonymous": false,
      "inputs": [
        {
          "indexed": false,
          "internalType": "uint256",
          "name": "ngoPrize",
          "type": "uint256"
        }
      ],
      "name": "ClaimNGO",
      "type": "event"
    },
    {
      "anonymous": false,
      "inputs": [
        {
          "indexed": true,
          "internalType": "address",
          "name": "who",
          "type": "address"
        },
        {
          "indexed": true,
          "internalType": "address",
          "name": "to",
          "type": "address"
        }
      ],
      "name": "ClaimPrize",
      "type": "event"
    },
    {
      "anonymous": false,
      "inputs": [
        {
          "indexed": false,
          "internalType": "uint256",
          "name": "eventId",
          "type": "uint256"
        },
        {
          "indexed": false,
          "internalType": "uint256",
          "name": "blockInit",
          "type": "uint256"
        },
        {
          "indexed": false,
          "internalType": "uint256",
          "name": "blockEnd",
          "type": "uint256"
        }
      ],
      "name": "EventActive",
      "type": "event"
    },
    {
      "anonymous": false,
      "inputs": [
        {
          "indexed": false,
          "internalType": "uint256",
          "name": "eventId",
          "type": "uint256"
        }
      ],
      "name": "EventBetsFinished",
      "type": "event"
    },
    {
      "anonymous": false,
      "inputs": [
        {
          "indexed": false,
          "internalType": "uint256",
          "name": "eventId",
          "type": "uint256"
        }
      ],
      "name": "EventCreated",
      "type": "event"
    },
    {
      "anonymous": false,
      "inputs": [
        {
          "indexed": false,
          "internalType": "uint256",
          "name": "eventId",
          "type": "uint256"
        },
        {
          "indexed": false,
          "internalType": "uint8",
          "name": "result",
          "type": "uint8"
        }
      ],
      "name": "EventOutcome",
      "type": "event"
    },
    {
      "anonymous": false,
      "inputs": [
        {
          "indexed": false,
          "internalType": "address",
          "name": "token",
          "type": "address"
        },
        {
          "indexed": false,
          "internalType": "address",
          "name": "NGO",
          "type": "address"
        },
        {
          "indexed": false,
          "internalType": "address",
          "name": "oracle",
          "type": "address"
        },
        {
          "indexed": false,
          "internalType": "uint256",
          "name": "NGODonationPercentage",
          "type": "uint256"
        },
        {
          "indexed": false,
          "internalType": "uint256",
          "name": "maxEvents",
          "type": "uint256"
        },
        {
          "indexed": false,
          "internalType": "uint256",
          "name": "minWinnerPoints",
          "type": "uint256"
        }
      ],
      "name": "Initialized",
      "type": "event"
    },
    {
      "anonymous": false,
      "inputs": [
        {
          "indexed": false,
          "internalType": "uint256",
          "name": "oldMinPoints",
          "type": "uint256"
        },
        {
          "indexed": false,
          "internalType": "uint256",
          "name": "newMinPoints",
          "type": "uint256"
        }
      ],
      "name": "MinWinnerPointsUpdated",
      "type": "event"
    },
    {
      "anonymous": false,
      "inputs": [
        {
          "indexed": true,
          "internalType": "address",
          "name": "previousOwner",
          "type": "address"
        },
        {
          "indexed": true,
          "internalType": "address",
          "name": "newOwner",
          "type": "address"
        }
      ],
      "name": "OwnershipTransferred",
      "type": "event"
    },
    {
      "anonymous": false,
      "inputs": [
        {
          "indexed": false,
          "internalType": "uint256",
          "name": "ngoPrize",
          "type": "uint256"
        },
        {
          "indexed": false,
          "internalType": "uint256",
          "name": "winnerPrize",
          "type": "uint256"
        },
        {
          "indexed": false,
          "internalType": "uint256",
          "name": "totalAmountToShare",
          "type": "uint256"
        },
        {
          "indexed": false,
          "internalType": "uint256",
          "name": "winners",
          "type": "uint256"
        }
      ],
      "name": "PrizesSet",
      "type": "event"
    },
    {
      "anonymous": false,
      "inputs": [
        {
          "indexed": false,
          "internalType": "uint256",
          "name": "eventId",
          "type": "uint256"
        },
        {
          "indexed": false,
          "internalType": "uint256",
          "name": "amountOfWinners",
          "type": "uint256"
        }
      ],
      "name": "UpdateWinnersEvent",
      "type": "event"
    },
    {
      "inputs": [],
      "name": "NGO",
      "outputs": [
        {
          "internalType": "address",
          "name": "",
          "type": "address"
        }
      ],
      "stateMutability": "view",
      "type": "function"
    },
    {
      "inputs": [],
      "name": "NGODonationPercentage",
      "outputs": [
        {
          "internalType": "uint256",
          "name": "",
          "type": "uint256"
        }
      ],
      "stateMutability": "view",
      "type": "function"
    },
    {
      "inputs": [
        {
          "components": [
            {
              "internalType": "bool",
              "name": "active",
              "type": "bool"
            },
            {
              "internalType": "uint8",
              "name": "eventOutcome",
              "type": "uint8"
            },
            {
              "internalType": "string",
              "name": "name",
              "type": "string"
            },
            {
              "internalType": "uint256",
              "name": "thresholdInit",
              "type": "uint256"
            },
            {
              "internalType": "uint256",
              "name": "thresholdEnd",
              "type": "uint256"
            },
            {
              "internalType": "uint256",
              "name": "blockInit",
              "type": "uint256"
            },
            {
              "internalType": "uint256",
              "name": "blockEnd",
              "type": "uint256"
            },
            {
              "internalType": "uint256",
              "name": "poolSize",
              "type": "uint256"
            },
            {
              "internalType": "address[]",
              "name": "betTeamA",
              "type": "address[]"
            },
            {
              "internalType": "address[]",
              "name": "betTeamB",
              "type": "address[]"
            },
            {
              "internalType": "address[]",
              "name": "betDraw",
              "type": "address[]"
            },
            {
              "internalType": "enum IProde.EventState",
              "name": "state",
              "type": "uint8"
            }
          ],
          "internalType": "struct IProde.Event",
          "name": "_event",
          "type": "tuple"
        }
      ],
      "name": "addEvent",
      "outputs": [
        {
          "internalType": "uint256",
          "name": "",
          "type": "uint256"
        }
      ],
      "stateMutability": "nonpayable",
      "type": "function"
    },
    {
      "inputs": [
        {
          "components": [
            {
              "internalType": "bool",
              "name": "active",
              "type": "bool"
            },
            {
              "internalType": "uint8",
              "name": "eventOutcome",
              "type": "uint8"
            },
            {
              "internalType": "string",
              "name": "name",
              "type": "string"
            },
            {
              "internalType": "uint256",
              "name": "thresholdInit",
              "type": "uint256"
            },
            {
              "internalType": "uint256",
              "name": "thresholdEnd",
              "type": "uint256"
            },
            {
              "internalType": "uint256",
              "name": "blockInit",
              "type": "uint256"
            },
            {
              "internalType": "uint256",
              "name": "blockEnd",
              "type": "uint256"
            },
            {
              "internalType": "uint256",
              "name": "poolSize",
              "type": "uint256"
            },
            {
              "internalType": "address[]",
              "name": "betTeamA",
              "type": "address[]"
            },
            {
              "internalType": "address[]",
              "name": "betTeamB",
              "type": "address[]"
            },
            {
              "internalType": "address[]",
              "name": "betDraw",
              "type": "address[]"
            },
            {
              "internalType": "enum IProde.EventState",
              "name": "state",
              "type": "uint8"
            }
          ],
          "internalType": "struct IProde.Event[]",
          "name": "_events",
          "type": "tuple[]"
        }
      ],
      "name": "addEvents",
      "outputs": [],
      "stateMutability": "nonpayable",
      "type": "function"
    },
    {
      "inputs": [],
      "name": "claimONG",
      "outputs": [],
      "stateMutability": "nonpayable",
      "type": "function"
    },
    {
      "inputs": [
        {
          "internalType": "address",
          "name": "to",
          "type": "address"
        }
      ],
      "name": "claimPrize",
      "outputs": [],
      "stateMutability": "nonpayable",
      "type": "function"
    },
    {
      "inputs": [
        {
          "internalType": "uint256",
          "name": "",
          "type": "uint256"
        }
      ],
      "name": "events",
      "outputs": [
        {
          "internalType": "bool",
          "name": "active",
          "type": "bool"
        },
        {
          "internalType": "uint8",
          "name": "eventOutcome",
          "type": "uint8"
        },
        {
          "internalType": "string",
          "name": "name",
          "type": "string"
        },
        {
          "internalType": "uint256",
          "name": "thresholdInit",
          "type": "uint256"
        },
        {
          "internalType": "uint256",
          "name": "thresholdEnd",
          "type": "uint256"
        },
        {
          "internalType": "uint256",
          "name": "blockInit",
          "type": "uint256"
        },
        {
          "internalType": "uint256",
          "name": "blockEnd",
          "type": "uint256"
        },
        {
          "internalType": "uint256",
          "name": "poolSize",
          "type": "uint256"
        },
        {
          "internalType": "enum IProde.EventState",
          "name": "state",
          "type": "uint8"
        }
      ],
      "stateMutability": "view",
      "type": "function"
    },
    {
      "inputs": [
        {
          "internalType": "uint256",
          "name": "eventId",
          "type": "uint256"
        }
      ],
      "name": "getEventWinners",
      "outputs": [
        {
          "internalType": "address[]",
          "name": "",
          "type": "address[]"
        }
      ],
      "stateMutability": "view",
      "type": "function"
    },
    {
      "inputs": [],
      "name": "getNGOCurrentPoolPrize",
      "outputs": [
        {
          "internalType": "uint256",
          "name": "",
          "type": "uint256"
        }
      ],
      "stateMutability": "view",
      "type": "function"
    },
    {
      "inputs": [],
      "name": "globalPoolSize",
      "outputs": [
        {
          "internalType": "uint256",
          "name": "",
          "type": "uint256"
        }
      ],
      "stateMutability": "view",
      "type": "function"
    },
    {
      "inputs": [
        {
          "internalType": "address",
          "name": "",
          "type": "address"
        }
      ],
      "name": "hitters",
      "outputs": [
        {
          "internalType": "uint256",
          "name": "",
          "type": "uint256"
        }
      ],
      "stateMutability": "view",
      "type": "function"
    },
    {
      "inputs": [
        {
          "internalType": "address",
          "name": "user",
          "type": "address"
        }
      ],
      "name": "isWinner",
      "outputs": [
        {
          "internalType": "bool",
          "name": "",
          "type": "bool"
        }
      ],
      "stateMutability": "view",
      "type": "function"
    },
    {
      "inputs": [],
      "name": "maxEvents",
      "outputs": [
        {
          "internalType": "uint256",
          "name": "",
          "type": "uint256"
        }
      ],
      "stateMutability": "view",
      "type": "function"
    },
    {
      "inputs": [],
      "name": "minWinnerPoints",
      "outputs": [
        {
          "internalType": "uint256",
          "name": "",
          "type": "uint256"
        }
      ],
      "stateMutability": "view",
      "type": "function"
    },
    {
      "inputs": [],
      "name": "ngoPrize",
      "outputs": [
        {
          "internalType": "uint256",
          "name": "",
          "type": "uint256"
        }
      ],
      "stateMutability": "view",
      "type": "function"
    },
    {
      "inputs": [],
      "name": "oracle",
      "outputs": [
        {
          "internalType": "address",
          "name": "",
          "type": "address"
        }
      ],
      "stateMutability": "view",
      "type": "function"
    },
    {
      "inputs": [],
      "name": "owner",
      "outputs": [
        {
          "internalType": "address",
          "name": "",
          "type": "address"
        }
      ],
      "stateMutability": "view",
      "type": "function"
    },
    {
      "inputs": [
        {
          "internalType": "uint256",
          "name": "eventId",
          "type": "uint256"
        },
        {
          "internalType": "enum IProde.BetOdd",
          "name": "bet",
          "type": "uint8"
        },
        {
          "internalType": "uint256",
          "name": "amount",
          "type": "uint256"
        }
      ],
      "name": "placeBet",
      "outputs": [],
      "stateMutability": "nonpayable",
      "type": "function"
    },
    {
      "inputs": [
        {
          "internalType": "uint256",
          "name": "eventId",
          "type": "uint256"
        }
      ],
      "name": "pokeOracle",
      "outputs": [],
      "stateMutability": "nonpayable",
      "type": "function"
    },
    {
      "inputs": [],
      "name": "renounceOwnership",
      "outputs": [],
      "stateMutability": "nonpayable",
      "type": "function"
    },
    {
      "inputs": [
        {
          "internalType": "uint256",
          "name": "_newMinWinnerPoints",
          "type": "uint256"
        }
      ],
      "name": "setMinWinnerPoints",
      "outputs": [],
      "stateMutability": "nonpayable",
      "type": "function"
    },
    {
      "inputs": [],
      "name": "setPrizes",
      "outputs": [],
      "stateMutability": "nonpayable",
      "type": "function"
    },
    {
      "inputs": [
        {
          "internalType": "uint256",
          "name": "eventId",
          "type": "uint256"
        }
      ],
      "name": "startEvent",
      "outputs": [],
      "stateMutability": "nonpayable",
      "type": "function"
    },
    {
      "inputs": [
        {
          "internalType": "uint256",
          "name": "eventId",
          "type": "uint256"
        }
      ],
      "name": "stopEventBetWindow",
      "outputs": [],
      "stateMutability": "nonpayable",
      "type": "function"
    },
    {
      "inputs": [],
      "name": "token",
      "outputs": [
        {
          "internalType": "address",
          "name": "",
          "type": "address"
        }
      ],
      "stateMutability": "view",
      "type": "function"
    },
    {
      "inputs": [
        {
          "internalType": "address",
          "name": "newOwner",
          "type": "address"
        }
      ],
      "name": "transferOwnership",
      "outputs": [],
      "stateMutability": "nonpayable",
      "type": "function"
    },
    {
      "inputs": [
        {
          "internalType": "uint256",
          "name": "eventId",
          "type": "uint256"
        }
      ],
      "name": "updateResults",
      "outputs": [],
      "stateMutability": "nonpayable",
      "type": "function"
    },
    {
      "inputs": [
        {
          "internalType": "address",
          "name": "",
          "type": "address"
        },
        {
          "internalType": "uint256",
          "name": "",
          "type": "uint256"
        }
      ],
      "name": "usersByEvent",
      "outputs": [
        {
          "internalType": "uint256",
          "name": "",
          "type": "uint256"
        }
      ],
      "stateMutability": "view",
      "type": "function"
    },
    {
      "inputs": [],
      "name": "winnerPrize",
      "outputs": [
        {
          "internalType": "uint256",
          "name": "",
          "type": "uint256"
        }
      ],
      "stateMutability": "view",
      "type": "function"
    },
    {
      "inputs": [],
      "name": "winners",
      "outputs": [
        {
          "internalType": "uint256",
          "name": "",
          "type": "uint256"
        }
      ],
      "stateMutability": "view",
      "type": "function"
    }
  ],
  "transactionHash": "0xaac1815afaa2dc7742658fb0983031443d25879b06eb77d3feafd9662fbd2776",
  "args": [
    "0x40f757751d57FE096f769622A8918b183e5C02F2",
    "0x58eFdc4236465a87c996eb12751151a6084181f9",
    "0x089d9DBD8a9aB35F0c345C085F2e31d77C37CDB0",
    100,
    100,
    10
  ],
  "numDeployments": 2,
  "solcInputHash": "60fb3196f03b8468105ab55f7f73a7a3",
  "bytecode": "0x60e06040523480156200001157600080fd5b5060405162002bb338038062002bb38339810160408190526200003491620002af565b6200003f3362000242565b6001600160a01b0386166200009b5760405162461bcd60e51b815260206004820152601560248201527f494e56414c494420544f4b454e2041444452455353000000000000000000000060448201526064015b60405180910390fd5b6001600160a01b038516620000f35760405162461bcd60e51b815260206004820152601360248201527f494e56414c4944204e474f204144445245535300000000000000000000000000604482015260640162000092565b6001600160a01b0384166200014b5760405162461bcd60e51b815260206004820152601660248201527f494e56414c4944204f5241434c45204144445245535300000000000000000000604482015260640162000092565b600081116200019d5760405162461bcd60e51b815260206004820152601960248201527f494e56414c4944204d494e2057494e4e455220504f494e545300000000000000604482015260640162000092565b60c08281526004829055600180546001600160a01b038981166001600160a01b03199283168117909355888116608081815260a089815260028054948c169490951684179094556040805195865260208601929092529084019190915260608301879052820185905281018390527fb0e2a99e9b2ebc639d76c1769ea3bb56f24405fea8dc23ca53da9f0909c799f9910160405180910390a150505050505062000315565b600080546001600160a01b038381166001600160a01b0319831681178455604051919092169283917f8be0079c531659141344cd1fd0a4f28419497f9722a3daafe3b4186f6b6457e09190a35050565b80516001600160a01b0381168114620002aa57600080fd5b919050565b60008060008060008060c08789031215620002c957600080fd5b620002d48762000292565b9550620002e46020880162000292565b9450620002f46040880162000292565b9350606087015192506080870151915060a087015190509295509295509295565b60805160a05160c051612813620003a0600039600081816102640152818161047a015281816108bb01528181610c5501528181610dd101528181610f38015281816110400152818161129a0152818161143501526117750152600081816102a901528181611378015261173d01526000818161033001528181610b500152610cb201526128136000f3fe608060405234801561001057600080fd5b50600436106101da5760003560e01c80639bfe580711610104578063bddb5def116100a2578063e32d7b1b11610071578063e32d7b1b14610420578063e5e9b66114610428578063f2fde38b1461043b578063fc0c546a1461044e57600080fd5b8063bddb5def146103df578063d48bf143146103f2578063da866c48146103fa578063deb7f5801461040d57600080fd5b8063a487bcd8116100de578063a487bcd814610390578063a59a695314610399578063a62863a8146103ac578063b8cf1d17146103bf57600080fd5b80639bfe5807146103525780639d9ca28d1461035a578063a13dc4a31461037d57600080fd5b8063644679d31161017c5780637dc0d1d01161014b5780637dc0d1d0146102e65780638da5cb5b146103115780638e7d5ccc14610322578063937d7f111461032b57600080fd5b8063644679d31461029b578063662c0fb1146102a45780636f8784e1146102cb578063715018a6146102de57600080fd5b80631d0f6de9116101b85780631d0f6de91461024d5780632017aa2f146102565780634f0a3ffa1461025f57806363bcda291461028657600080fd5b8063018091ce146101df5780630b791430146102055780630fb599081461022d575b600080fd5b6101f26101ed3660046122bf565b610461565b6040519081526020015b60405180910390f35b6102186102133660046122f4565b610668565b6040516101fc9998979695949392919061237b565b61024061023b3660046122f4565b610744565b6040516101fc91906123e6565b6101f260075481565b6101f260065481565b6101f27f000000000000000000000000000000000000000000000000000000000000000081565b6102996102943660046122f4565b6108b8565b005b6101f260035481565b6101f27f000000000000000000000000000000000000000000000000000000000000000081565b6102996102d93660046122f4565b610a94565b610299610b31565b6002546102f9906001600160a01b031681565b6040516001600160a01b0390911681526020016101fc565b6000546001600160a01b03166102f9565b6101f260045481565b6102f97f000000000000000000000000000000000000000000000000000000000000000081565b610299610b45565b61036d610368366004612433565b610d14565b60405190151581526020016101fc565b6101f261038b366004612450565b610d9d565b6101f260055481565b6102996103a73660046122f4565b610dce565b6102996103ba3660046122f4565b610f35565b6101f26103cd366004612433565b600a6020526000908152604090205481565b6102996103ed3660046122f4565b61103d565b610299611298565b61029961040836600461247c565b611432565b61029961041b3660046124b8565b611729565b6101f2611734565b610299610436366004612433565b611773565b610299610449366004612433565b6118e1565b6001546102f9906001600160a01b031681565b600061046b611957565b600061047660085490565b90507f00000000000000000000000000000000000000000000000000000000000000008111156104ed5760405162461bcd60e51b815260206004820152601e60248201527f50524f4445583a2043414e4e4f5420414444204d4f5245204556454e5453000060448201526064015b60405180910390fd5b6104fb600880546001019055565b600061050660085490565b9050610511846119b1565b600080855260e085018190526101608501819052506000818152600c6020908152604091829020865181548389015160ff166101000261ff00199215159290921661ffff1990911617178155918601518051879392610577926001850192910190611edb565b50606082015160028201556080820151600382015560a0820151600482015560c0820151600582015560e0820151600682015561010082015180516105c6916007840191602090910190611f5f565b5061012082015180516105e3916008840191602090910190611f5f565b506101408201518051610600916009840191602090910190611f5f565b50610160820151600a8201805460ff1916600183600481111561062557610625612365565b0217905550506040518281527f748ff5cfd7b66bdd8e21581c2a864756fe7085378c0003183e579bfafba28325915060200160405180910390a19150505b919050565b600c602052600090815260409020805460018201805460ff808416946101009094041692919061069790612569565b80601f01602080910402602001604051908101604052809291908181526020018280546106c390612569565b80156107105780601f106106e557610100808354040283529160200191610710565b820191906000526020600020905b8154815290600101906020018083116106f357829003601f168201915b50505060028401546003850154600486015460058701546006880154600a9098015496979396929550909350919060ff1689565b6000818152600c6020526040902054606090610100900460ff16806107d1576000838152600c6020908152604091829020600701805483518184028101840190945280845290918301828280156107c457602002820191906000526020600020905b81546001600160a01b031681526001909101906020018083116107a6575b5050505050915050919050565b8060011415610846576000838152600c6020908152604091829020600801805483518184028101840190945280845290918301828280156107c4576020028201919060005260206000209081546001600160a01b031681526001909101906020018083116107a6575050505050915050919050565b6000838152600c6020908152604091829020600901805483518184028101840190945280845290918301828280156107c4576020028201919060005260206000209081546001600160a01b031681526001909101906020018083116107a6575050505050915050919050565b50919050565b807f000000000000000000000000000000000000000000000000000000000000000081111580156108f757506000818152600c602052604090205460ff165b6109135760405162461bcd60e51b81526004016104e49061259e565b60036000838152600c60205260409020600a015460ff16600481111561093b5761093b612365565b1461094557600080fd5b600061095083610744565b905060005b8151811015610a23576001600a6000848481518110610976576109766125d5565b60200260200101516001600160a01b03166001600160a01b0316815260200190815260200160002060008282546109ad9190612601565b92505081905550600454600a60008484815181106109cd576109cd6125d5565b60200260200101516001600160a01b03166001600160a01b031681526020019081526020016000205410610a115760058054906000610a0b83612619565b91905055505b80610a1b81612619565b915050610955565b506000838152600c60205260409020600a8101805460ff19908116600417909155815416905560098054600101905580516040805185815260208101929092527ffcda307a899d09c000f956ef8043cc643f341cd56a5d5b9d14dc50800014bbbf91015b60405180910390a1505050565b610a9c611957565b60008111610aec5760405162461bcd60e51b815260206004820152601960248201527f494e56414c4944204d494e2057494e4e455220504f494e54530000000000000060448201526064016104e4565b6004819055604080518281526020810183905282917fdbbc0a1afd7b8c69afab2bfa10dc6b361a85d5d24feab70d0a0b60ee9b52409991015b60405180910390a15050565b610b39611957565b610b436000611b73565b565b336001600160a01b037f0000000000000000000000000000000000000000000000000000000000000000161480610bfd5750306001600160a01b0316638da5cb5b6040518163ffffffff1660e01b815260040160206040518083038186803b158015610bb057600080fd5b505afa158015610bc4573d6000803e3d6000fd5b505050506040513d601f19601f82011682018060405250810190610be89190612634565b6001600160a01b0316336001600160a01b0316145b610c535760405162461bcd60e51b815260206004820152602160248201527f50524f4445583a204e4f54204e474f204f5220434f4e5452414354204f574e456044820152602960f91b60648201526084016104e4565b7f0000000000000000000000000000000000000000000000000000000000000000610c7d60095490565b14610c9a5760405162461bcd60e51b81526004016104e490612651565b600754600154610cd7916001600160a01b03909116907f000000000000000000000000000000000000000000000000000000000000000090611bc3565b7fdd3ff36cd65aa18ad7b2f7f860b71048c171b35a5b470c8c188abaf345db6752600754604051610d0a91815260200190565b60405180910390a1565b60006001600160a01b038216610d6c5760405162461bcd60e51b815260206004820152601760248201527f50524f4445583a20494e56414c4944204144445245535300000000000000000060448201526064016104e4565b6004546001600160a01b0383166000908152600a602052604090205410610d9557506001919050565b506000919050565b600b6020528160005260406000208181548110610db957600080fd5b90600052602060002001600091509150505481565b807f0000000000000000000000000000000000000000000000000000000000000000811115610e4f5760405162461bcd60e51b815260206004820152602760248201527f4556454e542049532047524541544552205448414e204d4158204556454e545360448201526610272aa6a122a960c91b60648201526084016104e4565b6000828152600c602052604090206002810154600490910154610e7291906126a4565b421015610ec15760405162461bcd60e51b815260206004820152601d60248201527f50524f4445583a2043414e4e4f5420494e4954204556454e542059455400000060448201526064016104e4565b6000828152600c60209081526040918290208054600160ff1991821681178355600a830180549092161790556004810154600590910154835186815292830191909152918101919091527f809e0371ce4656ff03837f283d2a15eb489a2cb6c8ab78f9a3fb530382ac937290606001610b25565b807f00000000000000000000000000000000000000000000000000000000000000008111158015610f7457506000818152600c602052604090205460ff165b610f905760405162461bcd60e51b81526004016104e49061259e565b6000828152600c60205260409020600401544211610ff05760405162461bcd60e51b815260206004820181905260248201527f50524f4445583a204245545320415245205354494c4c20415641494c41424c4560448201526064016104e4565b6000828152600c6020908152604091829020600a01805460ff1916600217905590518381527f10e025aa48a4e29ce69517c168b6bc06b4d5557de0881408559617166b97c9379101610b25565b807f0000000000000000000000000000000000000000000000000000000000000000811115801561107c57506000818152600c602052604090205460ff165b6110985760405162461bcd60e51b81526004016104e49061259e565b60026000838152600c60205260409020600a015460ff1660048111156110c0576110c0612365565b146111275760405162461bcd60e51b815260206004820152603160248201527f50524f4445583a204556454e5420535441544520444f4553204e4f5420414c4c6044820152704f5720544f20504f4b45204f5241434c4560781b60648201526084016104e4565b6000828152600c60205260409020600381015460059091015461114a9190612601565b42116111aa5760405162461bcd60e51b815260206004820152602960248201527f50524f4445583a204954204953204e4f542054494d4520544f20504f4b45204f604482015268149050d3114816515560ba1b60648201526084016104e4565b60025460405163c60d2d8f60e01b8152600481018490526000916001600160a01b03169063c60d2d8f90602401602060405180830381600087803b1580156111f157600080fd5b505af1158015611205573d6000803e3d6000fd5b505050506040513d601f19601f8201168201806040525081019061122991906126bb565b6000848152600c60205260409020805461ff00191661010060ff841602178155600a01805491925060039160ff191660018302179055506040805184815260ff831660208201527fa5c0ca580aac8c1d6965dc5f2c4610296fa04c70daf0fa2b77cd2bd1a05ce4499101610a87565b7f00000000000000000000000000000000000000000000000000000000000000006112c260095490565b1461132a5760405162461bcd60e51b815260206004820152603260248201527f50524f4445583a20414c4c204556454e5453204d5553542042452050524f43456044820152715353454420544f20534554205052495a455360701b60648201526084016104e4565b6000600554116113715760405162461bcd60e51b815260206004820152601260248201527150524f4445583a204e4f2057494e4e45525360701b60448201526064016104e4565b600061139e7f000000000000000000000000000000000000000000000000000000000000000060646126a4565b905060006113c260646113bc84600354611c2b90919063ffffffff16565b90611c3e565b9050600554816113d291906126d8565b6006556003546113e39082906126a4565b600781905560065460055460408051938452602084019290925290820183905260608201527fb5f42caf22528a8a83e8e0252f5b55b8a28bdbd78000b04b6f516f742892f00490608001610b25565b827f0000000000000000000000000000000000000000000000000000000000000000811115801561147157506000818152600c602052604090205460ff165b61148d5760405162461bcd60e51b81526004016104e49061259e565b6000848152600c602052604090205460ff166114eb5760405162461bcd60e51b815260206004820152601860248201527f50524f4445583a204556454e54204e4f5420414354495645000000000000000060448201526064016104e4565b6000848152600c602052604090206004015442111561154c5760405162461bcd60e51b815260206004820152601860248201527f50524f4445583a204245542054494d452045585049524544000000000000000060448201526064016104e4565b600082116115b45760405162461bcd60e51b815260206004820152602f60248201527f50524f4445583a20414d4f554e5420544f20424554204d55535420424520475260448201526e4541544552205448414e205a45524f60881b60648201526084016104e4565b6000848152600c6020526040812060060180548492906115d5908490612601565b9250508190555081600360008282546115ee9190612601565b909155506000905083600281111561160857611608612365565b1415611644576000848152600c602090815260408220600701805460018101825590835291200180546001600160a01b031916331790556116c6565b600283600281111561165857611658612365565b1415611694576000848152600c602090815260408220600801805460018101825590835291200180546001600160a01b031916331790556116c6565b6000848152600c602090815260408220600901805460018101825590835291200180546001600160a01b031916331790555b6001546116de906001600160a01b0316333085611c4a565b336001600160a01b03167f4f1eed5e863a822b0f9eb960dfdab2cc5a99beec4b191f2a7a9c7e28e5a1552485858560405161171b939291906126fa565b60405180910390a250505050565b611731611957565b50565b600061176160647f00000000000000000000000000000000000000000000000000000000000000006126d8565b60035461176e9190612722565b905090565b7f000000000000000000000000000000000000000000000000000000000000000061179d60095490565b146117ba5760405162461bcd60e51b81526004016104e490612651565b60006006541161180c5760405162461bcd60e51b815260206004820152601a60248201527f50524f4445583a2057494e45525052495a45204e4f542053455400000000000060448201526064016104e4565b600454336000908152600a6020526040902054101561187e5760405162461bcd60e51b815260206004820152602860248201527f50524f4445583a2055534552204e4f5420454c454749424c4520544f20434c41604482015267494d205052495a4560c01b60648201526084016104e4565b60065460015461189b916001600160a01b03909116908390611bc3565b336000818152600a6020526040808220829055516001600160a01b03841692917f4863e8ddbb1d47b2d2751f70a49813cf77503f5e78317defca7727512c95cd9c91a350565b6118e9611957565b6001600160a01b03811661194e5760405162461bcd60e51b815260206004820152602660248201527f4f776e61626c653a206e6577206f776e657220697320746865207a65726f206160448201526564647265737360d01b60648201526084016104e4565b61173181611b73565b6000546001600160a01b03163314610b435760405162461bcd60e51b815260206004820181905260248201527f4f776e61626c653a2063616c6c6572206973206e6f7420746865206f776e657260448201526064016104e4565b428160a0015111611a225760405162461bcd60e51b815260206004820152603560248201527f50524f4445583a20494e495420424c4f434b204d5553542042452047524541546044820152744552205448414e2043555252454e5420424c4f434b60581b60648201526084016104e4565b428160c0015111611a925760405162461bcd60e51b815260206004820152603460248201527f50524f4445583a20454e4420424c4f434b204d5553542042452047524541544560448201527352205448414e2043555252454e5420424c4f434b60601b60648201526084016104e4565b8060a001518160c001511015611b075760405162461bcd60e51b815260206004820152603460248201527f50524f4445583a204d415443482043414e4e4f5420454e44204245464f52452060448201527326a0aa21a41024a724aa24a0a624ad20aa24a7a760611b60648201526084016104e4565b6101008101515115611b2b5760405162461bcd60e51b81526004016104e490612741565b6101208101515115611b4f5760405162461bcd60e51b81526004016104e490612741565b61014081015151156117315760405162461bcd60e51b81526004016104e490612741565b600080546001600160a01b038381166001600160a01b0319831681178455604051919092169283917f8be0079c531659141344cd1fd0a4f28419497f9722a3daafe3b4186f6b6457e09190a35050565b6040516001600160a01b038316602482015260448101829052611c2690849063a9059cbb60e01b906064015b60408051601f198184030181529190526020810180516001600160e01b03166001600160e01b031990931692909217909152611c88565b505050565b6000611c378284612722565b9392505050565b6000611c3782846126d8565b6040516001600160a01b0380851660248301528316604482015260648101829052611c829085906323b872dd60e01b90608401611bef565b50505050565b6000611cdd826040518060400160405280602081526020017f5361666545524332303a206c6f772d6c6576656c2063616c6c206661696c6564815250856001600160a01b0316611d5a9092919063ffffffff16565b805190915015611c265780806020019051810190611cfb9190612791565b611c265760405162461bcd60e51b815260206004820152602a60248201527f5361666545524332303a204552433230206f7065726174696f6e20646964206e6044820152691bdd081cdd58d8d9595960b21b60648201526084016104e4565b6060611d698484600085611d71565b949350505050565b606082471015611dd25760405162461bcd60e51b815260206004820152602660248201527f416464726573733a20696e73756666696369656e742062616c616e636520666f6044820152651c8818d85b1b60d21b60648201526084016104e4565b6001600160a01b0385163b611e295760405162461bcd60e51b815260206004820152601d60248201527f416464726573733a2063616c6c20746f206e6f6e2d636f6e747261637400000060448201526064016104e4565b600080866001600160a01b03168587604051611e4591906127ae565b60006040518083038185875af1925050503d8060008114611e82576040519150601f19603f3d011682016040523d82523d6000602084013e611e87565b606091505b5091509150611e97828286611ea2565b979650505050505050565b60608315611eb1575081611c37565b825115611ec15782518084602001fd5b8160405162461bcd60e51b81526004016104e491906127ca565b828054611ee790612569565b90600052602060002090601f016020900481019282611f095760008555611f4f565b82601f10611f2257805160ff1916838001178555611f4f565b82800160010185558215611f4f579182015b82811115611f4f578251825591602001919060010190611f34565b50611f5b929150611fb4565b5090565b828054828255906000526020600020908101928215611f4f579160200282015b82811115611f4f57825182546001600160a01b0319166001600160a01b03909116178255602090920191600190910190611f7f565b5b80821115611f5b5760008155600101611fb5565b634e487b7160e01b600052604160045260246000fd5b604051610180810167ffffffffffffffff8111828210171561200357612003611fc9565b60405290565b604051601f8201601f1916810167ffffffffffffffff8111828210171561203257612032611fc9565b604052919050565b801515811461173157600080fd5b80356106638161203a565b60ff8116811461173157600080fd5b803561066381612053565b600082601f83011261207e57600080fd5b813567ffffffffffffffff81111561209857612098611fc9565b6120ab601f8201601f1916602001612009565b8181528460208386010111156120c057600080fd5b816020850160208301376000918101602001919091529392505050565b600067ffffffffffffffff8211156120f7576120f7611fc9565b5060051b60200190565b6001600160a01b038116811461173157600080fd5b600082601f83011261212757600080fd5b8135602061213c612137836120dd565b612009565b82815260059290921b8401810191818101908684111561215b57600080fd5b8286015b8481101561217f57803561217281612101565b835291830191830161215f565b509695505050505050565b80356005811061066357600080fd5b600061018082840312156121ac57600080fd5b6121b4611fdf565b90506121bf82612048565b81526121cd60208301612062565b6020820152604082013567ffffffffffffffff808211156121ed57600080fd5b6121f98583860161206d565b6040840152606084013560608401526080840135608084015260a084013560a084015260c084013560c084015260e084013560e08401526101009150818401358181111561224657600080fd5b61225286828701612116565b83850152506101209150818401358181111561226d57600080fd5b61227986828701612116565b83850152506101409150818401358181111561229457600080fd5b6122a086828701612116565b838501525050506101606122b581840161218a565b9082015292915050565b6000602082840312156122d157600080fd5b813567ffffffffffffffff8111156122e857600080fd5b611d6984828501612199565b60006020828403121561230657600080fd5b5035919050565b60005b83811015612328578181015183820152602001612310565b83811115611c825750506000910152565b6000815180845261235181602086016020860161230d565b601f01601f19169290920160200192915050565b634e487b7160e01b600052602160045260246000fd5b60006101208b1515835260ff8b1660208401528060408401526123a08184018b612339565b9150508760608301528660808301528560a08301528460c08301528360e0830152600583106123d1576123d1612365565b826101008301529a9950505050505050505050565b6020808252825182820181905260009190848201906040850190845b818110156124275783516001600160a01b031683529284019291840191600101612402565b50909695505050505050565b60006020828403121561244557600080fd5b8135611c3781612101565b6000806040838503121561246357600080fd5b823561246e81612101565b946020939093013593505050565b60008060006060848603121561249157600080fd5b833592506020840135600381106124a757600080fd5b929592945050506040919091013590565b600060208083850312156124cb57600080fd5b823567ffffffffffffffff808211156124e357600080fd5b818501915085601f8301126124f757600080fd5b8135612505612137826120dd565b81815260059190911b8301840190848101908883111561252457600080fd5b8585015b8381101561255c578035858111156125405760008081fd5b61254e8b89838a0101612199565b845250918601918601612528565b5098975050505050505050565b600181811c9082168061257d57607f821691505b602082108114156108b257634e487b7160e01b600052602260045260246000fd5b6020808252601e908201527f494e56414c4944204556454e54204944204f52204e4f54204143544956450000604082015260600190565b634e487b7160e01b600052603260045260246000fd5b634e487b7160e01b600052601160045260246000fd5b60008219821115612614576126146125eb565b500190565b600060001982141561262d5761262d6125eb565b5060010190565b60006020828403121561264657600080fd5b8151611c3781612101565b60208082526033908201527f50524f4445583a20414c4c204556454e5453204d5553542042452050524f43456040820152725353454420544f20434c41494d205052495a4560681b606082015260800190565b6000828210156126b6576126b66125eb565b500390565b6000602082840312156126cd57600080fd5b8151611c3781612053565b6000826126f557634e487b7160e01b600052601260045260246000fd5b500490565b838152606081016003841061271157612711612365565b602082019390935260400152919050565b600081600019048311821515161561273c5761273c6125eb565b500290565b60208082526030908201527f50524f4445583a204d415443482043414e4e4f5420484156452042455453204f60408201526f271024a724aa24a0a624ad20aa24a7a760811b606082015260800190565b6000602082840312156127a357600080fd5b8151611c378161203a565b600082516127c081846020870161230d565b9190910192915050565b602081526000611c37602083018461233956fea26469706673582212209821ffd24abe3aec666d8b7c5fa02f0ded2bc93eeaa902111664b98f5c85637c64736f6c63430008090033",
  "devdoc": {
    "kind": "dev",
    "methods": {
      "owner()": {
        "details": "Returns the address of the current owner."
      },
      "renounceOwnership()": {
        "details": "Leaves the contract without owner. It will not be possible to call `onlyOwner` functions anymore. Can only be called by the current owner. NOTE: Renouncing ownership will leave the contract without an owner, thereby removing any functionality that is only available to the owner."
      },
      "transferOwnership(address)": {
        "details": "Transfers ownership of the contract to a new account (`newOwner`). Can only be called by the current owner."
      }
    },
    "version": 1
  },
  "userdoc": {
    "kind": "user",
    "methods": {
      "addEvents((bool,uint8,string,uint256,uint256,uint256,uint256,uint256,address[],address[],address[],uint8)[])": {
        "notice": "TODO SATURDAY "
      }
    },
    "version": 1
  },
  "storageLayout": {
    "storage": [
      {
        "astId": 7,
        "contract": "contracts/Prodex.sol:Prodex",
        "label": "_owner",
        "offset": 0,
        "slot": "0",
        "type": "t_address"
      },
      {
        "astId": 2861,
        "contract": "contracts/Prodex.sol:Prodex",
        "label": "token",
        "offset": 0,
        "slot": "1",
        "type": "t_address"
      },
      {
        "astId": 2863,
        "contract": "contracts/Prodex.sol:Prodex",
        "label": "oracle",
        "offset": 0,
        "slot": "2",
        "type": "t_address"
      },
      {
        "astId": 2869,
        "contract": "contracts/Prodex.sol:Prodex",
        "label": "globalPoolSize",
        "offset": 0,
        "slot": "3",
        "type": "t_uint256"
      },
      {
        "astId": 2873,
        "contract": "contracts/Prodex.sol:Prodex",
        "label": "minWinnerPoints",
        "offset": 0,
        "slot": "4",
        "type": "t_uint256"
      },
      {
        "astId": 2875,
        "contract": "contracts/Prodex.sol:Prodex",
        "label": "winners",
        "offset": 0,
        "slot": "5",
        "type": "t_uint256"
      },
      {
        "astId": 2877,
        "contract": "contracts/Prodex.sol:Prodex",
        "label": "winnerPrize",
        "offset": 0,
        "slot": "6",
        "type": "t_uint256"
      },
      {
        "astId": 2879,
        "contract": "contracts/Prodex.sol:Prodex",
        "label": "ngoPrize",
        "offset": 0,
        "slot": "7",
        "type": "t_uint256"
      },
      {
        "astId": 2882,
        "contract": "contracts/Prodex.sol:Prodex",
        "label": "_eventIdCounter",
        "offset": 0,
        "slot": "8",
        "type": "t_struct(Counter)1983_storage"
      },
      {
        "astId": 2885,
        "contract": "contracts/Prodex.sol:Prodex",
        "label": "_eventIdProcessedCounter",
        "offset": 0,
        "slot": "9",
        "type": "t_struct(Counter)1983_storage"
      },
      {
        "astId": 2889,
        "contract": "contracts/Prodex.sol:Prodex",
        "label": "hitters",
        "offset": 0,
        "slot": "10",
        "type": "t_mapping(t_address,t_uint256)"
      },
      {
        "astId": 2894,
        "contract": "contracts/Prodex.sol:Prodex",
        "label": "usersByEvent",
        "offset": 0,
        "slot": "11",
        "type": "t_mapping(t_address,t_array(t_uint256)dyn_storage)"
      },
      {
        "astId": 2899,
        "contract": "contracts/Prodex.sol:Prodex",
        "label": "events",
        "offset": 0,
        "slot": "12",
        "type": "t_mapping(t_uint256,t_struct(Event)3813_storage)"
      }
    ],
    "types": {
      "t_address": {
        "encoding": "inplace",
        "label": "address",
        "numberOfBytes": "20"
      },
      "t_array(t_address)dyn_storage": {
        "base": "t_address",
        "encoding": "dynamic_array",
        "label": "address[]",
        "numberOfBytes": "32"
      },
      "t_array(t_uint256)dyn_storage": {
        "base": "t_uint256",
        "encoding": "dynamic_array",
        "label": "uint256[]",
        "numberOfBytes": "32"
      },
      "t_bool": {
        "encoding": "inplace",
        "label": "bool",
        "numberOfBytes": "1"
      },
      "t_enum(EventState)3819": {
        "encoding": "inplace",
        "label": "enum IProde.EventState",
        "numberOfBytes": "1"
      },
      "t_mapping(t_address,t_array(t_uint256)dyn_storage)": {
        "encoding": "mapping",
        "key": "t_address",
        "label": "mapping(address => uint256[])",
        "numberOfBytes": "32",
        "value": "t_array(t_uint256)dyn_storage"
      },
      "t_mapping(t_address,t_uint256)": {
        "encoding": "mapping",
        "key": "t_address",
        "label": "mapping(address => uint256)",
        "numberOfBytes": "32",
        "value": "t_uint256"
      },
      "t_mapping(t_uint256,t_struct(Event)3813_storage)": {
        "encoding": "mapping",
        "key": "t_uint256",
        "label": "mapping(uint256 => struct IProde.Event)",
        "numberOfBytes": "32",
        "value": "t_struct(Event)3813_storage"
      },
      "t_string_storage": {
        "encoding": "bytes",
        "label": "string",
        "numberOfBytes": "32"
      },
      "t_struct(Counter)1983_storage": {
        "encoding": "inplace",
        "label": "struct Counters.Counter",
        "members": [
          {
            "astId": 1982,
            "contract": "contracts/Prodex.sol:Prodex",
            "label": "_value",
            "offset": 0,
            "slot": "0",
            "type": "t_uint256"
          }
        ],
        "numberOfBytes": "32"
      },
      "t_struct(Event)3813_storage": {
        "encoding": "inplace",
        "label": "struct IProde.Event",
        "members": [
          {
            "astId": 3786,
            "contract": "contracts/Prodex.sol:Prodex",
            "label": "active",
            "offset": 0,
            "slot": "0",
            "type": "t_bool"
          },
          {
            "astId": 3788,
            "contract": "contracts/Prodex.sol:Prodex",
            "label": "eventOutcome",
            "offset": 1,
            "slot": "0",
            "type": "t_uint8"
          },
          {
            "astId": 3790,
            "contract": "contracts/Prodex.sol:Prodex",
            "label": "name",
            "offset": 0,
            "slot": "1",
            "type": "t_string_storage"
          },
          {
            "astId": 3792,
            "contract": "contracts/Prodex.sol:Prodex",
            "label": "thresholdInit",
            "offset": 0,
            "slot": "2",
            "type": "t_uint256"
          },
          {
            "astId": 3794,
            "contract": "contracts/Prodex.sol:Prodex",
            "label": "thresholdEnd",
            "offset": 0,
            "slot": "3",
            "type": "t_uint256"
          },
          {
            "astId": 3796,
            "contract": "contracts/Prodex.sol:Prodex",
            "label": "blockInit",
            "offset": 0,
            "slot": "4",
            "type": "t_uint256"
          },
          {
            "astId": 3798,
            "contract": "contracts/Prodex.sol:Prodex",
            "label": "blockEnd",
            "offset": 0,
            "slot": "5",
            "type": "t_uint256"
          },
          {
            "astId": 3800,
            "contract": "contracts/Prodex.sol:Prodex",
            "label": "poolSize",
            "offset": 0,
            "slot": "6",
            "type": "t_uint256"
          },
          {
            "astId": 3803,
            "contract": "contracts/Prodex.sol:Prodex",
            "label": "betTeamA",
            "offset": 0,
            "slot": "7",
            "type": "t_array(t_address)dyn_storage"
          },
          {
            "astId": 3806,
            "contract": "contracts/Prodex.sol:Prodex",
            "label": "betTeamB",
            "offset": 0,
            "slot": "8",
            "type": "t_array(t_address)dyn_storage"
          },
          {
            "astId": 3809,
            "contract": "contracts/Prodex.sol:Prodex",
            "label": "betDraw",
            "offset": 0,
            "slot": "9",
            "type": "t_array(t_address)dyn_storage"
          },
          {
            "astId": 3812,
            "contract": "contracts/Prodex.sol:Prodex",
            "label": "state",
            "offset": 0,
            "slot": "10",
            "type": "t_enum(EventState)3819"
          }
        ],
        "numberOfBytes": "352"
      },
      "t_uint256": {
        "encoding": "inplace",
        "label": "uint256",
        "numberOfBytes": "32"
      },
      "t_uint8": {
        "encoding": "inplace",
        "label": "uint8",
        "numberOfBytes": "1"
      }
    }
  }
}