{
  "address": "0x1513892A08651bfAF1b71b6B28510c7648c9CC69",
  "abi": [
    {
      "inputs": [
        {
          "internalType": "address",
          "name": "_token",
          "type": "address"
        },
        {
          "internalType": "address",
          "name": "_ngo",
          "type": "address"
        },
        {
          "internalType": "address",
          "name": "_oracle",
          "type": "address"
        },
        {
          "internalType": "uint256",
          "name": "_ngoDonationPercentage",
          "type": "uint256"
        },
        {
          "internalType": "uint256",
          "name": "_maxEvents",
          "type": "uint256"
        },
        {
          "internalType": "uint256",
          "name": "_minWinnerPoints",
          "type": "uint256"
        },
        {
          "internalType": "uint256",
          "name": "_betAmount",
          "type": "uint256"
        }
      ],
      "stateMutability": "nonpayable",
      "type": "constructor"
    },
    {
      "anonymous": false,
      "inputs": [
        {
          "indexed": false,
          "internalType": "uint256",
          "name": "eventId",
          "type": "uint256"
        },
        {
          "indexed": true,
          "internalType": "address",
          "name": "who",
          "type": "address"
        },
        {
          "indexed": false,
          "internalType": "enum IProde.BetOdd",
          "name": "bet",
          "type": "uint8"
        }
      ],
      "name": "BetPlaced",
      "type": "event"
    },
    {
      "anonymous": false,
      "inputs": [
        {
          "indexed": false,
          "internalType": "uint256",
          "name": "ngoPrize",
          "type": "uint256"
        }
      ],
      "name": "ClaimNGO",
      "type": "event"
    },
    {
      "anonymous": false,
      "inputs": [
        {
          "indexed": true,
          "internalType": "address",
          "name": "who",
          "type": "address"
        },
        {
          "indexed": true,
          "internalType": "address",
          "name": "to",
          "type": "address"
        }
      ],
      "name": "ClaimPrize",
      "type": "event"
    },
    {
      "anonymous": false,
      "inputs": [
        {
          "indexed": false,
          "internalType": "uint256",
          "name": "eventId",
          "type": "uint256"
        },
        {
          "indexed": false,
          "internalType": "uint256",
          "name": "blockInit",
          "type": "uint256"
        },
        {
          "indexed": false,
          "internalType": "uint256",
          "name": "blockEnd",
          "type": "uint256"
        }
      ],
      "name": "EventActive",
      "type": "event"
    },
    {
      "anonymous": false,
      "inputs": [
        {
          "indexed": false,
          "internalType": "uint256",
          "name": "eventId",
          "type": "uint256"
        }
      ],
      "name": "EventBetsFinished",
      "type": "event"
    },
    {
      "anonymous": false,
      "inputs": [
        {
          "indexed": false,
          "internalType": "uint256",
          "name": "eventId",
          "type": "uint256"
        }
      ],
      "name": "EventCreated",
      "type": "event"
    },
    {
      "anonymous": false,
      "inputs": [
        {
          "indexed": false,
          "internalType": "uint256",
          "name": "eventId",
          "type": "uint256"
        },
        {
          "indexed": false,
          "internalType": "uint8",
          "name": "result",
          "type": "uint8"
        }
      ],
      "name": "EventOutcome",
      "type": "event"
    },
    {
      "anonymous": false,
      "inputs": [
        {
          "indexed": false,
          "internalType": "address",
          "name": "token",
          "type": "address"
        },
        {
          "indexed": false,
          "internalType": "address",
          "name": "NGO",
          "type": "address"
        },
        {
          "indexed": false,
          "internalType": "address",
          "name": "oracle",
          "type": "address"
        },
        {
          "indexed": false,
          "internalType": "uint256",
          "name": "NGODonationPercentage",
          "type": "uint256"
        },
        {
          "indexed": false,
          "internalType": "uint256",
          "name": "maxEvents",
          "type": "uint256"
        },
        {
          "indexed": false,
          "internalType": "uint256",
          "name": "minWinnerPoints",
          "type": "uint256"
        },
        {
          "indexed": false,
          "internalType": "uint256",
          "name": "betAmount",
          "type": "uint256"
        }
      ],
      "name": "Initialized",
      "type": "event"
    },
    {
      "anonymous": false,
      "inputs": [
        {
          "indexed": false,
          "internalType": "uint256",
          "name": "oldMinPoints",
          "type": "uint256"
        },
        {
          "indexed": false,
          "internalType": "uint256",
          "name": "newMinPoints",
          "type": "uint256"
        }
      ],
      "name": "MinWinnerPointsUpdated",
      "type": "event"
    },
    {
      "anonymous": false,
      "inputs": [
        {
          "indexed": true,
          "internalType": "address",
          "name": "previousOwner",
          "type": "address"
        },
        {
          "indexed": true,
          "internalType": "address",
          "name": "newOwner",
          "type": "address"
        }
      ],
      "name": "OwnershipTransferred",
      "type": "event"
    },
    {
      "anonymous": false,
      "inputs": [
        {
          "indexed": false,
          "internalType": "uint256",
          "name": "ngoPrize",
          "type": "uint256"
        },
        {
          "indexed": false,
          "internalType": "uint256",
          "name": "winnerPrize",
          "type": "uint256"
        },
        {
          "indexed": false,
          "internalType": "uint256",
          "name": "totalAmountToShare",
          "type": "uint256"
        },
        {
          "indexed": false,
          "internalType": "uint256",
          "name": "winners",
          "type": "uint256"
        }
      ],
      "name": "PrizesSet",
      "type": "event"
    },
    {
      "anonymous": false,
      "inputs": [
        {
          "indexed": false,
          "internalType": "uint256",
          "name": "eventId",
          "type": "uint256"
        }
      ],
      "name": "RequestedRandomId",
      "type": "event"
    },
    {
      "anonymous": false,
      "inputs": [
        {
          "indexed": false,
          "internalType": "uint256",
          "name": "eventId",
          "type": "uint256"
        },
        {
          "indexed": false,
          "internalType": "uint256",
          "name": "amountOfWinners",
          "type": "uint256"
        }
      ],
      "name": "UpdateWinnersEvent",
      "type": "event"
    },
    {
      "inputs": [],
      "name": "NGO",
      "outputs": [
        {
          "internalType": "address",
          "name": "",
          "type": "address"
        }
      ],
      "stateMutability": "view",
      "type": "function"
    },
    {
      "inputs": [],
      "name": "NGODonationPercentage",
      "outputs": [
        {
          "internalType": "uint256",
          "name": "",
          "type": "uint256"
        }
      ],
      "stateMutability": "view",
      "type": "function"
    },
    {
      "inputs": [
        {
          "components": [
            {
              "internalType": "bool",
              "name": "active",
              "type": "bool"
            },
            {
              "internalType": "uint8",
              "name": "eventOutcome",
              "type": "uint8"
            },
            {
              "internalType": "string",
              "name": "name",
              "type": "string"
            },
            {
              "internalType": "uint256",
              "name": "thresholdInit",
              "type": "uint256"
            },
            {
              "internalType": "uint256",
              "name": "thresholdEnd",
              "type": "uint256"
            },
            {
              "internalType": "uint256",
              "name": "blockInit",
              "type": "uint256"
            },
            {
              "internalType": "uint256",
              "name": "blockEnd",
              "type": "uint256"
            },
            {
              "internalType": "uint256",
              "name": "poolSize",
              "type": "uint256"
            },
            {
              "internalType": "address[]",
              "name": "betTeamA",
              "type": "address[]"
            },
            {
              "internalType": "address[]",
              "name": "betTeamB",
              "type": "address[]"
            },
            {
              "internalType": "address[]",
              "name": "betDraw",
              "type": "address[]"
            },
            {
              "internalType": "enum IProde.EventState",
              "name": "state",
              "type": "uint8"
            }
          ],
          "internalType": "struct IProde.Event",
          "name": "_event",
          "type": "tuple"
        }
      ],
      "name": "addEvent",
      "outputs": [
        {
          "internalType": "uint256",
          "name": "",
          "type": "uint256"
        }
      ],
      "stateMutability": "nonpayable",
      "type": "function"
    },
    {
      "inputs": [
        {
          "components": [
            {
              "internalType": "bool",
              "name": "active",
              "type": "bool"
            },
            {
              "internalType": "uint8",
              "name": "eventOutcome",
              "type": "uint8"
            },
            {
              "internalType": "string",
              "name": "name",
              "type": "string"
            },
            {
              "internalType": "uint256",
              "name": "thresholdInit",
              "type": "uint256"
            },
            {
              "internalType": "uint256",
              "name": "thresholdEnd",
              "type": "uint256"
            },
            {
              "internalType": "uint256",
              "name": "blockInit",
              "type": "uint256"
            },
            {
              "internalType": "uint256",
              "name": "blockEnd",
              "type": "uint256"
            },
            {
              "internalType": "uint256",
              "name": "poolSize",
              "type": "uint256"
            },
            {
              "internalType": "address[]",
              "name": "betTeamA",
              "type": "address[]"
            },
            {
              "internalType": "address[]",
              "name": "betTeamB",
              "type": "address[]"
            },
            {
              "internalType": "address[]",
              "name": "betDraw",
              "type": "address[]"
            },
            {
              "internalType": "enum IProde.EventState",
              "name": "state",
              "type": "uint8"
            }
          ],
          "internalType": "struct IProde.Event[]",
          "name": "_events",
          "type": "tuple[]"
        }
      ],
      "name": "addEvents",
      "outputs": [],
      "stateMutability": "nonpayable",
      "type": "function"
    },
    {
      "inputs": [],
      "name": "betAmount",
      "outputs": [
        {
          "internalType": "uint256",
          "name": "",
          "type": "uint256"
        }
      ],
      "stateMutability": "view",
      "type": "function"
    },
    {
      "inputs": [],
      "name": "claimONG",
      "outputs": [],
      "stateMutability": "nonpayable",
      "type": "function"
    },
    {
      "inputs": [
        {
          "internalType": "address",
          "name": "to",
          "type": "address"
        }
      ],
      "name": "claimPrize",
      "outputs": [],
      "stateMutability": "nonpayable",
      "type": "function"
    },
    {
      "inputs": [
        {
          "internalType": "uint256",
          "name": "",
          "type": "uint256"
        }
      ],
      "name": "events",
      "outputs": [
        {
          "internalType": "bool",
          "name": "active",
          "type": "bool"
        },
        {
          "internalType": "uint8",
          "name": "eventOutcome",
          "type": "uint8"
        },
        {
          "internalType": "string",
          "name": "name",
          "type": "string"
        },
        {
          "internalType": "uint256",
          "name": "thresholdInit",
          "type": "uint256"
        },
        {
          "internalType": "uint256",
          "name": "thresholdEnd",
          "type": "uint256"
        },
        {
          "internalType": "uint256",
          "name": "blockInit",
          "type": "uint256"
        },
        {
          "internalType": "uint256",
          "name": "blockEnd",
          "type": "uint256"
        },
        {
          "internalType": "uint256",
          "name": "poolSize",
          "type": "uint256"
        },
        {
          "internalType": "enum IProde.EventState",
          "name": "state",
          "type": "uint8"
        }
      ],
      "stateMutability": "view",
      "type": "function"
    },
    {
      "inputs": [
        {
          "internalType": "uint256",
          "name": "eventId",
          "type": "uint256"
        }
      ],
      "name": "getEventWinners",
      "outputs": [
        {
          "internalType": "address[]",
          "name": "",
          "type": "address[]"
        }
      ],
      "stateMutability": "view",
      "type": "function"
    },
    {
      "inputs": [],
      "name": "getNGOCurrentPoolPrize",
      "outputs": [
        {
          "internalType": "uint256",
          "name": "",
          "type": "uint256"
        }
      ],
      "stateMutability": "view",
      "type": "function"
    },
    {
      "inputs": [],
      "name": "globalPoolSize",
      "outputs": [
        {
          "internalType": "uint256",
          "name": "",
          "type": "uint256"
        }
      ],
      "stateMutability": "view",
      "type": "function"
    },
    {
      "inputs": [
        {
          "internalType": "address",
          "name": "",
          "type": "address"
        }
      ],
      "name": "hitters",
      "outputs": [
        {
          "internalType": "uint256",
          "name": "",
          "type": "uint256"
        }
      ],
      "stateMutability": "view",
      "type": "function"
    },
    {
      "inputs": [
        {
          "internalType": "address",
          "name": "user",
          "type": "address"
        }
      ],
      "name": "isWinner",
      "outputs": [
        {
          "internalType": "bool",
          "name": "",
          "type": "bool"
        }
      ],
      "stateMutability": "view",
      "type": "function"
    },
    {
      "inputs": [],
      "name": "maxEvents",
      "outputs": [
        {
          "internalType": "uint256",
          "name": "",
          "type": "uint256"
        }
      ],
      "stateMutability": "view",
      "type": "function"
    },
    {
      "inputs": [],
      "name": "minWinnerPoints",
      "outputs": [
        {
          "internalType": "uint256",
          "name": "",
          "type": "uint256"
        }
      ],
      "stateMutability": "view",
      "type": "function"
    },
    {
      "inputs": [],
      "name": "ngoPrize",
      "outputs": [
        {
          "internalType": "uint256",
          "name": "",
          "type": "uint256"
        }
      ],
      "stateMutability": "view",
      "type": "function"
    },
    {
      "inputs": [],
      "name": "oracle",
      "outputs": [
        {
          "internalType": "address",
          "name": "",
          "type": "address"
        }
      ],
      "stateMutability": "view",
      "type": "function"
    },
    {
      "inputs": [],
      "name": "owner",
      "outputs": [
        {
          "internalType": "address",
          "name": "",
          "type": "address"
        }
      ],
      "stateMutability": "view",
      "type": "function"
    },
    {
      "inputs": [
        {
          "internalType": "uint256",
          "name": "eventId",
          "type": "uint256"
        },
        {
          "internalType": "enum IProde.BetOdd",
          "name": "bet",
          "type": "uint8"
        }
      ],
      "name": "placeBet",
      "outputs": [],
      "stateMutability": "nonpayable",
      "type": "function"
    },
    {
      "inputs": [
        {
          "internalType": "uint256",
          "name": "eventId",
          "type": "uint256"
        }
      ],
      "name": "pokeOracle",
      "outputs": [],
      "stateMutability": "nonpayable",
      "type": "function"
    },
    {
      "inputs": [],
      "name": "renounceOwnership",
      "outputs": [],
      "stateMutability": "nonpayable",
      "type": "function"
    },
    {
      "inputs": [
        {
          "internalType": "uint256",
          "name": "eventId",
          "type": "uint256"
        }
      ],
      "name": "requestOracle",
      "outputs": [],
      "stateMutability": "nonpayable",
      "type": "function"
    },
    {
      "inputs": [
        {
          "internalType": "uint256",
          "name": "_newMinWinnerPoints",
          "type": "uint256"
        }
      ],
      "name": "setMinWinnerPoints",
      "outputs": [],
      "stateMutability": "nonpayable",
      "type": "function"
    },
    {
      "inputs": [],
      "name": "setPrizes",
      "outputs": [],
      "stateMutability": "nonpayable",
      "type": "function"
    },
    {
      "inputs": [
        {
          "internalType": "uint256",
          "name": "eventId",
          "type": "uint256"
        }
      ],
      "name": "startEvent",
      "outputs": [],
      "stateMutability": "nonpayable",
      "type": "function"
    },
    {
      "inputs": [
        {
          "internalType": "uint256",
          "name": "eventId",
          "type": "uint256"
        }
      ],
      "name": "stopEventBetWindow",
      "outputs": [],
      "stateMutability": "nonpayable",
      "type": "function"
    },
    {
      "inputs": [],
      "name": "token",
      "outputs": [
        {
          "internalType": "address",
          "name": "",
          "type": "address"
        }
      ],
      "stateMutability": "view",
      "type": "function"
    },
    {
      "inputs": [
        {
          "internalType": "address",
          "name": "newOwner",
          "type": "address"
        }
      ],
      "name": "transferOwnership",
      "outputs": [],
      "stateMutability": "nonpayable",
      "type": "function"
    },
    {
      "inputs": [
        {
          "internalType": "uint256",
          "name": "eventId",
          "type": "uint256"
        }
      ],
      "name": "updateResults",
      "outputs": [],
      "stateMutability": "nonpayable",
      "type": "function"
    },
    {
      "inputs": [
        {
          "internalType": "address",
          "name": "",
          "type": "address"
        },
        {
          "internalType": "uint256",
          "name": "",
          "type": "uint256"
        }
      ],
      "name": "usersByEvent",
      "outputs": [
        {
          "internalType": "bool",
          "name": "",
          "type": "bool"
        }
      ],
      "stateMutability": "view",
      "type": "function"
    },
    {
      "inputs": [],
      "name": "winnerPrize",
      "outputs": [
        {
          "internalType": "uint256",
          "name": "",
          "type": "uint256"
        }
      ],
      "stateMutability": "view",
      "type": "function"
    },
    {
      "inputs": [],
      "name": "winners",
      "outputs": [
        {
          "internalType": "uint256",
          "name": "",
          "type": "uint256"
        }
      ],
      "stateMutability": "view",
      "type": "function"
    }
  ],
  "transactionHash": "0xa89da2afede7111bea2a28759619fab78afb7be97d041ce88b53748fd94fe76a",
  "args": [
    "0x159236a9ca7d4fe0C9a0D4d9Dcd15C4a502Db608",
    "0x58eFdc4236465a87c996eb12751151a6084181f9",
    "0x1B6baEAcdfa816b782884BF49D3eAc9AD1f5a383",
    100,
    100,
    10,
    1000
  ],
  "numDeployments": 4,
  "solcInputHash": "b0fdeb04d2435776e75a306989d9dc3a",
  "bytecode": "0x6101006040523480156200001257600080fd5b5060405162002de838038062002de8833981016040819052620000359162000304565b620000403362000297565b6001600160a01b0387166200009c5760405162461bcd60e51b815260206004820152601560248201527f494e56414c494420544f4b454e2041444452455353000000000000000000000060448201526064015b60405180910390fd5b6001600160a01b038616620000f45760405162461bcd60e51b815260206004820152601360248201527f494e56414c4944204e474f204144445245535300000000000000000000000000604482015260640162000093565b6001600160a01b0385166200014c5760405162461bcd60e51b815260206004820152601660248201527f494e56414c4944204f5241434c45204144445245535300000000000000000000604482015260640162000093565b600082116200019e5760405162461bcd60e51b815260206004820152601960248201527f494e56414c4944204d494e2057494e4e455220504f494e545300000000000000604482015260640162000093565b60008111620001e55760405162461bcd60e51b8152602060048201526012602482015271125395905312510810915508105353d5539560721b604482015260640162000093565b600180546001600160a01b038981166001600160a01b03199283168117909355888116608081815260028054938b1693909416831790935560a088815260c0888152600488905560e0878152604080519788526020880194909452928601939093526060850189905292840187905291830185905282018390527f05833d6a461f6403366adaf69ce01e8e4764cee17da114689a1a5c3f4e1b5bc2910160405180910390a15050505050505062000375565b600080546001600160a01b038381166001600160a01b0319831681178455604051919092169283917f8be0079c531659141344cd1fd0a4f28419497f9722a3daafe3b4186f6b6457e09190a35050565b80516001600160a01b0381168114620002ff57600080fd5b919050565b600080600080600080600060e0888a0312156200032057600080fd5b6200032b88620002e7565b96506200033b60208901620002e7565b95506200034b60408901620002e7565b9450606088015193506080880151925060a0880151915060c0880151905092959891949750929550565b60805160a05160c05160e0516129c2620004266000396000818161043b015281816108a4015281816108d901526109f501526000818161028f015281816104e5015281816106d601528181610cb40152818161104e015281816111990152818161130001528181611408015281816116620152818161184601526119b50152600081816102d201528181611740015261180e01526000818161035901528181610f4901526110ab01526129c26000f3fe608060405234801561001057600080fd5b50600436106101f05760003560e01c80639bfe58071161010f578063d24257c0116100a2578063e5e9b66111610071578063e5e9b66114610480578063eb07646114610493578063f2fde38b146104a6578063fc0c546a146104b957600080fd5b8063d24257c014610436578063d48bf1431461045d578063deb7f58014610465578063e32d7b1b1461047857600080fd5b8063a59a6953116100de578063a59a6953146103dd578063a62863a8146103f0578063b8cf1d1714610403578063bddb5def1461042357600080fd5b80639bfe58071461037b5780639d9ca28d14610383578063a13dc4a3146103a6578063a487bcd8146103d457600080fd5b8063644679d3116101875780637dc0d1d0116101565780637dc0d1d01461030f5780638da5cb5b1461033a5780638e7d5ccc1461034b578063937d7f111461035457600080fd5b8063644679d3146102c4578063662c0fb1146102cd5780636f8784e1146102f4578063715018a61461030757600080fd5b80631d0f6de9116101c35780631d0f6de9146102785780632017aa2f146102815780634f0a3ffa1461028a57806363bcda29146102b157600080fd5b8063018091ce146101f557806303edf9141461021b5780630b791430146102305780630fb5990814610258575b600080fd5b61020861020336600461247a565b6104cc565b6040519081526020015b60405180910390f35b61022e6102293660046124af565b6106d3565b005b61024361023e3660046124e3565b610a61565b6040516102129998979695949392919061256a565b61026b6102663660046124e3565b610b3d565b60405161021291906125d5565b61020860075481565b61020860065481565b6102087f000000000000000000000000000000000000000000000000000000000000000081565b61022e6102bf3660046124e3565b610cb1565b61020860035481565b6102087f000000000000000000000000000000000000000000000000000000000000000081565b61022e6103023660046124e3565b610e8d565b61022e610f2a565b600254610322906001600160a01b031681565b6040516001600160a01b039091168152602001610212565b6000546001600160a01b0316610322565b61020860045481565b6103227f000000000000000000000000000000000000000000000000000000000000000081565b61022e610f3e565b610396610391366004612622565b61110d565b6040519015158152602001610212565b6103966103b436600461263f565b600b60209081526000928352604080842090915290825290205460ff1681565b61020860055481565b61022e6103eb3660046124e3565b611196565b61022e6103fe3660046124e3565b6112fd565b610208610411366004612622565b600a6020526000908152604090205481565b61022e6104313660046124e3565b611405565b6102087f000000000000000000000000000000000000000000000000000000000000000081565b61022e611660565b61022e61047336600461266b565b6117fa565b610208611805565b61022e61048e366004612622565b611844565b61022e6104a13660046124e3565b6119b2565b61022e6104b4366004612622565b611a9c565b600154610322906001600160a01b031681565b60006104d6611b12565b60006104e160085490565b90507f00000000000000000000000000000000000000000000000000000000000000008111156105585760405162461bcd60e51b815260206004820152601e60248201527f50524f4445583a2043414e4e4f5420414444204d4f5245204556454e5453000060448201526064015b60405180910390fd5b610566600880546001019055565b600061057160085490565b905061057c84611b6c565b600080855260e085018190526101608501819052506000818152600c6020908152604091829020865181548389015160ff166101000261ff00199215159290921661ffff19909116171781559186015180518793926105e2926001850192910190612096565b50606082015160028201556080820151600382015560a0820151600482015560c0820151600582015560e08201516006820155610100820151805161063191600784019160209091019061211a565b50610120820151805161064e91600884019160209091019061211a565b50610140820151805161066b91600984019160209091019061211a565b50610160820151600a8201805460ff1916600183600481111561069057610690612554565b0217905550506040518281527f748ff5cfd7b66bdd8e21581c2a864756fe7085378c0003183e579bfafba28325915060200160405180910390a19150505b919050565b817f0000000000000000000000000000000000000000000000000000000000000000811115801561071257506000818152600c602052604090205460ff165b61072e5760405162461bcd60e51b815260040161054f9061271c565b6000838152600c602052604090205460ff1661078c5760405162461bcd60e51b815260206004820152601860248201527f50524f4445583a204556454e54204e4f54204143544956450000000000000000604482015260640161054f565b6000838152600c60205260409020600401544211156107ed5760405162461bcd60e51b815260206004820152601860248201527f50524f4445583a204245542054494d4520455850495245440000000000000000604482015260640161054f565b336000908152600b6020908152604080832086845290915290205460ff16156108715760405162461bcd60e51b815260206004820152603060248201527f50524f4445583a20555345522043414e4e4f5420424554204d4f52452054484160448201526f138813d390d14814115488115591539560821b606482015260840161054f565b336000908152600b602090815260408083208684528252808320805460ff19166001179055600c909152812060060180547f000000000000000000000000000000000000000000000000000000000000000092906108d0908490612769565b925050819055507f0000000000000000000000000000000000000000000000000000000000000000600360008282546109099190612769565b909155506000905082600281111561092357610923612554565b141561095f576000838152600c602090815260408220600701805460018101825590835291200180546001600160a01b031916331790556109e1565b600282600281111561097357610973612554565b14156109af576000838152600c602090815260408220600801805460018101825590835291200180546001600160a01b031916331790556109e1565b6000838152600c602090815260408220600901805460018101825590835291200180546001600160a01b031916331790555b600154610a19906001600160a01b031633307f0000000000000000000000000000000000000000000000000000000000000000611d2e565b336001600160a01b03167fae6991a793b64f1a31dee76253261982129a7ce5af34688cabe35ae7ad44e29e8484604051610a54929190612781565b60405180910390a2505050565b600c602052600090815260409020805460018201805460ff8084169461010090940416929190610a90906127a5565b80601f0160208091040260200160405190810160405280929190818152602001828054610abc906127a5565b8015610b095780601f10610ade57610100808354040283529160200191610b09565b820191906000526020600020905b815481529060010190602001808311610aec57829003601f168201915b50505060028401546003850154600486015460058701546006880154600a9098015496979396929550909350919060ff1689565b6000818152600c6020526040902054606090610100900460ff1680610bca576000838152600c602090815260409182902060070180548351818402810184019094528084529091830182828015610bbd57602002820191906000526020600020905b81546001600160a01b03168152600190910190602001808311610b9f575b5050505050915050919050565b8060011415610c3f576000838152600c602090815260409182902060080180548351818402810184019094528084529091830182828015610bbd576020028201919060005260206000209081546001600160a01b03168152600190910190602001808311610b9f575050505050915050919050565b6000838152600c602090815260409182902060090180548351818402810184019094528084529091830182828015610bbd576020028201919060005260206000209081546001600160a01b03168152600190910190602001808311610b9f575050505050915050919050565b50919050565b807f00000000000000000000000000000000000000000000000000000000000000008111158015610cf057506000818152600c602052604090205460ff165b610d0c5760405162461bcd60e51b815260040161054f9061271c565b60036000838152600c60205260409020600a015460ff166004811115610d3457610d34612554565b14610d3e57600080fd5b6000610d4983610b3d565b905060005b8151811015610e1c576001600a6000848481518110610d6f57610d6f6127da565b60200260200101516001600160a01b03166001600160a01b031681526020019081526020016000206000828254610da69190612769565b92505081905550600454600a6000848481518110610dc657610dc66127da565b60200260200101516001600160a01b03166001600160a01b031681526020019081526020016000205410610e0a5760058054906000610e04836127f0565b91905055505b80610e14816127f0565b915050610d4e565b506000838152600c60205260409020600a8101805460ff19908116600417909155815416905560098054600101905580516040805185815260208101929092527ffcda307a899d09c000f956ef8043cc643f341cd56a5d5b9d14dc50800014bbbf91015b60405180910390a1505050565b610e95611b12565b60008111610ee55760405162461bcd60e51b815260206004820152601960248201527f494e56414c4944204d494e2057494e4e455220504f494e545300000000000000604482015260640161054f565b6004819055604080518281526020810183905282917fdbbc0a1afd7b8c69afab2bfa10dc6b361a85d5d24feab70d0a0b60ee9b52409991015b60405180910390a15050565b610f32611b12565b610f3c6000611d9f565b565b336001600160a01b037f0000000000000000000000000000000000000000000000000000000000000000161480610ff65750306001600160a01b0316638da5cb5b6040518163ffffffff1660e01b815260040160206040518083038186803b158015610fa957600080fd5b505afa158015610fbd573d6000803e3d6000fd5b505050506040513d601f19601f82011682018060405250810190610fe1919061280b565b6001600160a01b0316336001600160a01b0316145b61104c5760405162461bcd60e51b815260206004820152602160248201527f50524f4445583a204e4f54204e474f204f5220434f4e5452414354204f574e456044820152602960f91b606482015260840161054f565b7f000000000000000000000000000000000000000000000000000000000000000061107660095490565b146110935760405162461bcd60e51b815260040161054f90612828565b6007546001546110d0916001600160a01b03909116907f000000000000000000000000000000000000000000000000000000000000000090611def565b7fdd3ff36cd65aa18ad7b2f7f860b71048c171b35a5b470c8c188abaf345db675260075460405161110391815260200190565b60405180910390a1565b60006001600160a01b0382166111655760405162461bcd60e51b815260206004820152601760248201527f50524f4445583a20494e56414c49442041444452455353000000000000000000604482015260640161054f565b6004546001600160a01b0383166000908152600a60205260409020541061118e57506001919050565b506000919050565b807f00000000000000000000000000000000000000000000000000000000000000008111156112175760405162461bcd60e51b815260206004820152602760248201527f4556454e542049532047524541544552205448414e204d4158204556454e545360448201526610272aa6a122a960c91b606482015260840161054f565b6000828152600c60205260409020600281015460049091015461123a919061287b565b4210156112895760405162461bcd60e51b815260206004820152601d60248201527f50524f4445583a2043414e4e4f5420494e4954204556454e5420594554000000604482015260640161054f565b6000828152600c60209081526040918290208054600160ff1991821681178355600a830180549092161790556004810154600590910154835186815292830191909152918101919091527f809e0371ce4656ff03837f283d2a15eb489a2cb6c8ab78f9a3fb530382ac937290606001610f1e565b807f0000000000000000000000000000000000000000000000000000000000000000811115801561133c57506000818152600c602052604090205460ff165b6113585760405162461bcd60e51b815260040161054f9061271c565b6000828152600c602052604090206004015442116113b85760405162461bcd60e51b815260206004820181905260248201527f50524f4445583a204245545320415245205354494c4c20415641494c41424c45604482015260640161054f565b6000828152600c6020908152604091829020600a01805460ff1916600217905590518381527f10e025aa48a4e29ce69517c168b6bc06b4d5557de0881408559617166b97c9379101610f1e565b807f0000000000000000000000000000000000000000000000000000000000000000811115801561144457506000818152600c602052604090205460ff165b6114605760405162461bcd60e51b815260040161054f9061271c565b60026000838152600c60205260409020600a015460ff16600481111561148857611488612554565b146114ef5760405162461bcd60e51b815260206004820152603160248201527f50524f4445583a204556454e5420535441544520444f4553204e4f5420414c4c6044820152704f5720544f20504f4b45204f5241434c4560781b606482015260840161054f565b6000828152600c6020526040902060038101546005909101546115129190612769565b42116115725760405162461bcd60e51b815260206004820152602960248201527f50524f4445583a204954204953204e4f542054494d4520544f20504f4b45204f604482015268149050d3114816515560ba1b606482015260840161054f565b60025460405163c60d2d8f60e01b8152600481018490526000916001600160a01b03169063c60d2d8f90602401602060405180830381600087803b1580156115b957600080fd5b505af11580156115cd573d6000803e3d6000fd5b505050506040513d601f19601f820116820180604052508101906115f19190612892565b6000848152600c60205260409020805461ff00191661010060ff841602178155600a01805491925060039160ff191660018302179055506040805184815260ff831660208201527fa5c0ca580aac8c1d6965dc5f2c4610296fa04c70daf0fa2b77cd2bd1a05ce4499101610e80565b7f000000000000000000000000000000000000000000000000000000000000000061168a60095490565b146116f25760405162461bcd60e51b815260206004820152603260248201527f50524f4445583a20414c4c204556454e5453204d5553542042452050524f43456044820152715353454420544f20534554205052495a455360701b606482015260840161054f565b6000600554116117395760405162461bcd60e51b815260206004820152601260248201527150524f4445583a204e4f2057494e4e45525360701b604482015260640161054f565b60006117667f0000000000000000000000000000000000000000000000000000000000000000606461287b565b9050600061178a606461178484600354611e2490919063ffffffff16565b90611e37565b90506005548161179a91906128af565b6006556003546117ab90829061287b565b600781905560065460055460408051938452602084019290925290820183905260608201527fb5f42caf22528a8a83e8e0252f5b55b8a28bdbd78000b04b6f516f742892f00490608001610f1e565b611802611b12565b50565b600061183260647f00000000000000000000000000000000000000000000000000000000000000006128af565b60035461183f91906128d1565b905090565b7f000000000000000000000000000000000000000000000000000000000000000061186e60095490565b1461188b5760405162461bcd60e51b815260040161054f90612828565b6000600654116118dd5760405162461bcd60e51b815260206004820152601a60248201527f50524f4445583a2057494e45525052495a45204e4f5420534554000000000000604482015260640161054f565b600454336000908152600a6020526040902054101561194f5760405162461bcd60e51b815260206004820152602860248201527f50524f4445583a2055534552204e4f5420454c454749424c4520544f20434c41604482015267494d205052495a4560c01b606482015260840161054f565b60065460015461196c916001600160a01b03909116908390611def565b336000818152600a6020526040808220829055516001600160a01b03841692917f4863e8ddbb1d47b2d2751f70a49813cf77503f5e78317defca7727512c95cd9c91a350565b807f000000000000000000000000000000000000000000000000000000000000000081111580156119f157506000818152600c602052604090205460ff165b611a0d5760405162461bcd60e51b815260040161054f9061271c565b60025460405163b1eb96c960e01b8152600481018490526001600160a01b039091169063b1eb96c990602401600060405180830381600087803b158015611a5357600080fd5b505af1158015611a67573d6000803e3d6000fd5b505050507f52364007fb5377899732c611e5618a16d94c694e5b7267df99d0ec326d0a457282604051610f1e91815260200190565b611aa4611b12565b6001600160a01b038116611b095760405162461bcd60e51b815260206004820152602660248201527f4f776e61626c653a206e6577206f776e657220697320746865207a65726f206160448201526564647265737360d01b606482015260840161054f565b61180281611d9f565b6000546001600160a01b03163314610f3c5760405162461bcd60e51b815260206004820181905260248201527f4f776e61626c653a2063616c6c6572206973206e6f7420746865206f776e6572604482015260640161054f565b428160a0015111611bdd5760405162461bcd60e51b815260206004820152603560248201527f50524f4445583a20494e495420424c4f434b204d5553542042452047524541546044820152744552205448414e2043555252454e5420424c4f434b60581b606482015260840161054f565b428160c0015111611c4d5760405162461bcd60e51b815260206004820152603460248201527f50524f4445583a20454e4420424c4f434b204d5553542042452047524541544560448201527352205448414e2043555252454e5420424c4f434b60601b606482015260840161054f565b8060a001518160c001511015611cc25760405162461bcd60e51b815260206004820152603460248201527f50524f4445583a204d415443482043414e4e4f5420454e44204245464f52452060448201527326a0aa21a41024a724aa24a0a624ad20aa24a7a760611b606482015260840161054f565b6101008101515115611ce65760405162461bcd60e51b815260040161054f906128f0565b6101208101515115611d0a5760405162461bcd60e51b815260040161054f906128f0565b61014081015151156118025760405162461bcd60e51b815260040161054f906128f0565b6040516001600160a01b0380851660248301528316604482015260648101829052611d999085906323b872dd60e01b906084015b60408051601f198184030181529190526020810180516001600160e01b03166001600160e01b031990931692909217909152611e43565b50505050565b600080546001600160a01b038381166001600160a01b0319831681178455604051919092169283917f8be0079c531659141344cd1fd0a4f28419497f9722a3daafe3b4186f6b6457e09190a35050565b6040516001600160a01b038316602482015260448101829052611e1f90849063a9059cbb60e01b90606401611d62565b505050565b6000611e3082846128d1565b9392505050565b6000611e3082846128af565b6000611e98826040518060400160405280602081526020017f5361666545524332303a206c6f772d6c6576656c2063616c6c206661696c6564815250856001600160a01b0316611f159092919063ffffffff16565b805190915015611e1f5780806020019051810190611eb69190612940565b611e1f5760405162461bcd60e51b815260206004820152602a60248201527f5361666545524332303a204552433230206f7065726174696f6e20646964206e6044820152691bdd081cdd58d8d9595960b21b606482015260840161054f565b6060611f248484600085611f2c565b949350505050565b606082471015611f8d5760405162461bcd60e51b815260206004820152602660248201527f416464726573733a20696e73756666696369656e742062616c616e636520666f6044820152651c8818d85b1b60d21b606482015260840161054f565b6001600160a01b0385163b611fe45760405162461bcd60e51b815260206004820152601d60248201527f416464726573733a2063616c6c20746f206e6f6e2d636f6e7472616374000000604482015260640161054f565b600080866001600160a01b03168587604051612000919061295d565b60006040518083038185875af1925050503d806000811461203d576040519150601f19603f3d011682016040523d82523d6000602084013e612042565b606091505b509150915061205282828661205d565b979650505050505050565b6060831561206c575081611e30565b82511561207c5782518084602001fd5b8160405162461bcd60e51b815260040161054f9190612979565b8280546120a2906127a5565b90600052602060002090601f0160209004810192826120c4576000855561210a565b82601f106120dd57805160ff191683800117855561210a565b8280016001018555821561210a579182015b8281111561210a5782518255916020019190600101906120ef565b5061211692915061216f565b5090565b82805482825590600052602060002090810192821561210a579160200282015b8281111561210a57825182546001600160a01b0319166001600160a01b0390911617825560209092019160019091019061213a565b5b808211156121165760008155600101612170565b634e487b7160e01b600052604160045260246000fd5b604051610180810167ffffffffffffffff811182821017156121be576121be612184565b60405290565b604051601f8201601f1916810167ffffffffffffffff811182821017156121ed576121ed612184565b604052919050565b801515811461180257600080fd5b80356106ce816121f5565b60ff8116811461180257600080fd5b80356106ce8161220e565b600082601f83011261223957600080fd5b813567ffffffffffffffff81111561225357612253612184565b612266601f8201601f19166020016121c4565b81815284602083860101111561227b57600080fd5b816020850160208301376000918101602001919091529392505050565b600067ffffffffffffffff8211156122b2576122b2612184565b5060051b60200190565b6001600160a01b038116811461180257600080fd5b600082601f8301126122e257600080fd5b813560206122f76122f283612298565b6121c4565b82815260059290921b8401810191818101908684111561231657600080fd5b8286015b8481101561233a57803561232d816122bc565b835291830191830161231a565b509695505050505050565b8035600581106106ce57600080fd5b6000610180828403121561236757600080fd5b61236f61219a565b905061237a82612203565b81526123886020830161221d565b6020820152604082013567ffffffffffffffff808211156123a857600080fd5b6123b485838601612228565b6040840152606084013560608401526080840135608084015260a084013560a084015260c084013560c084015260e084013560e08401526101009150818401358181111561240157600080fd5b61240d868287016122d1565b83850152506101209150818401358181111561242857600080fd5b612434868287016122d1565b83850152506101409150818401358181111561244f57600080fd5b61245b868287016122d1565b83850152505050610160612470818401612345565b9082015292915050565b60006020828403121561248c57600080fd5b813567ffffffffffffffff8111156124a357600080fd5b611f2484828501612354565b600080604083850312156124c257600080fd5b823591506020830135600381106124d857600080fd5b809150509250929050565b6000602082840312156124f557600080fd5b5035919050565b60005b838110156125175781810151838201526020016124ff565b83811115611d995750506000910152565b600081518084526125408160208601602086016124fc565b601f01601f19169290920160200192915050565b634e487b7160e01b600052602160045260246000fd5b60006101208b1515835260ff8b16602084015280604084015261258f8184018b612528565b9150508760608301528660808301528560a08301528460c08301528360e0830152600583106125c0576125c0612554565b826101008301529a9950505050505050505050565b6020808252825182820181905260009190848201906040850190845b818110156126165783516001600160a01b0316835292840192918401916001016125f1565b50909695505050505050565b60006020828403121561263457600080fd5b8135611e30816122bc565b6000806040838503121561265257600080fd5b823561265d816122bc565b946020939093013593505050565b6000602080838503121561267e57600080fd5b823567ffffffffffffffff8082111561269657600080fd5b818501915085601f8301126126aa57600080fd5b81356126b86122f282612298565b81815260059190911b830184019084810190888311156126d757600080fd5b8585015b8381101561270f578035858111156126f35760008081fd5b6127018b89838a0101612354565b8452509186019186016126db565b5098975050505050505050565b6020808252601e908201527f494e56414c4944204556454e54204944204f52204e4f54204143544956450000604082015260600190565b634e487b7160e01b600052601160045260246000fd5b6000821982111561277c5761277c612753565b500190565b828152604081016003831061279857612798612554565b8260208301529392505050565b600181811c908216806127b957607f821691505b60208210811415610cab57634e487b7160e01b600052602260045260246000fd5b634e487b7160e01b600052603260045260246000fd5b600060001982141561280457612804612753565b5060010190565b60006020828403121561281d57600080fd5b8151611e30816122bc565b60208082526033908201527f50524f4445583a20414c4c204556454e5453204d5553542042452050524f43456040820152725353454420544f20434c41494d205052495a4560681b606082015260800190565b60008282101561288d5761288d612753565b500390565b6000602082840312156128a457600080fd5b8151611e308161220e565b6000826128cc57634e487b7160e01b600052601260045260246000fd5b500490565b60008160001904831182151516156128eb576128eb612753565b500290565b60208082526030908201527f50524f4445583a204d415443482043414e4e4f5420484156452042455453204f60408201526f271024a724aa24a0a624ad20aa24a7a760811b606082015260800190565b60006020828403121561295257600080fd5b8151611e30816121f5565b6000825161296f8184602087016124fc565b9190910192915050565b602081526000611e30602083018461252856fea264697066735822122069c3bcd3929bab31fae34b3530824d25167e56a5e7b2b681ae51fcc9e8d0875564736f6c63430008090033",
  "devdoc": {
    "kind": "dev",
    "methods": {
      "owner()": {
        "details": "Returns the address of the current owner."
      },
      "renounceOwnership()": {
        "details": "Leaves the contract without owner. It will not be possible to call `onlyOwner` functions anymore. Can only be called by the current owner. NOTE: Renouncing ownership will leave the contract without an owner, thereby removing any functionality that is only available to the owner."
      },
      "transferOwnership(address)": {
        "details": "Transfers ownership of the contract to a new account (`newOwner`). Can only be called by the current owner."
      }
    },
    "version": 1
  },
  "userdoc": {
    "kind": "user",
    "methods": {
      "addEvents((bool,uint8,string,uint256,uint256,uint256,uint256,uint256,address[],address[],address[],uint8)[])": {
        "notice": "TODO SATURDAY "
      }
    },
    "version": 1
  },
  "storageLayout": {
    "storage": [
      {
        "astId": 7,
        "contract": "contracts/Prodex.sol:Prodex",
        "label": "_owner",
        "offset": 0,
        "slot": "0",
        "type": "t_address"
      },
      {
        "astId": 2873,
        "contract": "contracts/Prodex.sol:Prodex",
        "label": "token",
        "offset": 0,
        "slot": "1",
        "type": "t_address"
      },
      {
        "astId": 2875,
        "contract": "contracts/Prodex.sol:Prodex",
        "label": "oracle",
        "offset": 0,
        "slot": "2",
        "type": "t_address"
      },
      {
        "astId": 2881,
        "contract": "contracts/Prodex.sol:Prodex",
        "label": "globalPoolSize",
        "offset": 0,
        "slot": "3",
        "type": "t_uint256"
      },
      {
        "astId": 2885,
        "contract": "contracts/Prodex.sol:Prodex",
        "label": "minWinnerPoints",
        "offset": 0,
        "slot": "4",
        "type": "t_uint256"
      },
      {
        "astId": 2887,
        "contract": "contracts/Prodex.sol:Prodex",
        "label": "winners",
        "offset": 0,
        "slot": "5",
        "type": "t_uint256"
      },
      {
        "astId": 2889,
        "contract": "contracts/Prodex.sol:Prodex",
        "label": "winnerPrize",
        "offset": 0,
        "slot": "6",
        "type": "t_uint256"
      },
      {
        "astId": 2891,
        "contract": "contracts/Prodex.sol:Prodex",
        "label": "ngoPrize",
        "offset": 0,
        "slot": "7",
        "type": "t_uint256"
      },
      {
        "astId": 2896,
        "contract": "contracts/Prodex.sol:Prodex",
        "label": "_eventIdCounter",
        "offset": 0,
        "slot": "8",
        "type": "t_struct(Counter)1983_storage"
      },
      {
        "astId": 2899,
        "contract": "contracts/Prodex.sol:Prodex",
        "label": "_eventIdProcessedCounter",
        "offset": 0,
        "slot": "9",
        "type": "t_struct(Counter)1983_storage"
      },
      {
        "astId": 2903,
        "contract": "contracts/Prodex.sol:Prodex",
        "label": "hitters",
        "offset": 0,
        "slot": "10",
        "type": "t_mapping(t_address,t_uint256)"
      },
      {
        "astId": 2909,
        "contract": "contracts/Prodex.sol:Prodex",
        "label": "usersByEvent",
        "offset": 0,
        "slot": "11",
        "type": "t_mapping(t_address,t_mapping(t_uint256,t_bool))"
      },
      {
        "astId": 2914,
        "contract": "contracts/Prodex.sol:Prodex",
        "label": "events",
        "offset": 0,
        "slot": "12",
        "type": "t_mapping(t_uint256,t_struct(Event)3885_storage)"
      }
    ],
    "types": {
      "t_address": {
        "encoding": "inplace",
        "label": "address",
        "numberOfBytes": "20"
      },
      "t_array(t_address)dyn_storage": {
        "base": "t_address",
        "encoding": "dynamic_array",
        "label": "address[]",
        "numberOfBytes": "32"
      },
      "t_bool": {
        "encoding": "inplace",
        "label": "bool",
        "numberOfBytes": "1"
      },
      "t_enum(EventState)3891": {
        "encoding": "inplace",
        "label": "enum IProde.EventState",
        "numberOfBytes": "1"
      },
      "t_mapping(t_address,t_mapping(t_uint256,t_bool))": {
        "encoding": "mapping",
        "key": "t_address",
        "label": "mapping(address => mapping(uint256 => bool))",
        "numberOfBytes": "32",
        "value": "t_mapping(t_uint256,t_bool)"
      },
      "t_mapping(t_address,t_uint256)": {
        "encoding": "mapping",
        "key": "t_address",
        "label": "mapping(address => uint256)",
        "numberOfBytes": "32",
        "value": "t_uint256"
      },
      "t_mapping(t_uint256,t_bool)": {
        "encoding": "mapping",
        "key": "t_uint256",
        "label": "mapping(uint256 => bool)",
        "numberOfBytes": "32",
        "value": "t_bool"
      },
      "t_mapping(t_uint256,t_struct(Event)3885_storage)": {
        "encoding": "mapping",
        "key": "t_uint256",
        "label": "mapping(uint256 => struct IProde.Event)",
        "numberOfBytes": "32",
        "value": "t_struct(Event)3885_storage"
      },
      "t_string_storage": {
        "encoding": "bytes",
        "label": "string",
        "numberOfBytes": "32"
      },
      "t_struct(Counter)1983_storage": {
        "encoding": "inplace",
        "label": "struct Counters.Counter",
        "members": [
          {
            "astId": 1982,
            "contract": "contracts/Prodex.sol:Prodex",
            "label": "_value",
            "offset": 0,
            "slot": "0",
            "type": "t_uint256"
          }
        ],
        "numberOfBytes": "32"
      },
      "t_struct(Event)3885_storage": {
        "encoding": "inplace",
        "label": "struct IProde.Event",
        "members": [
          {
            "astId": 3858,
            "contract": "contracts/Prodex.sol:Prodex",
            "label": "active",
            "offset": 0,
            "slot": "0",
            "type": "t_bool"
          },
          {
            "astId": 3860,
            "contract": "contracts/Prodex.sol:Prodex",
            "label": "eventOutcome",
            "offset": 1,
            "slot": "0",
            "type": "t_uint8"
          },
          {
            "astId": 3862,
            "contract": "contracts/Prodex.sol:Prodex",
            "label": "name",
            "offset": 0,
            "slot": "1",
            "type": "t_string_storage"
          },
          {
            "astId": 3864,
            "contract": "contracts/Prodex.sol:Prodex",
            "label": "thresholdInit",
            "offset": 0,
            "slot": "2",
            "type": "t_uint256"
          },
          {
            "astId": 3866,
            "contract": "contracts/Prodex.sol:Prodex",
            "label": "thresholdEnd",
            "offset": 0,
            "slot": "3",
            "type": "t_uint256"
          },
          {
            "astId": 3868,
            "contract": "contracts/Prodex.sol:Prodex",
            "label": "blockInit",
            "offset": 0,
            "slot": "4",
            "type": "t_uint256"
          },
          {
            "astId": 3870,
            "contract": "contracts/Prodex.sol:Prodex",
            "label": "blockEnd",
            "offset": 0,
            "slot": "5",
            "type": "t_uint256"
          },
          {
            "astId": 3872,
            "contract": "contracts/Prodex.sol:Prodex",
            "label": "poolSize",
            "offset": 0,
            "slot": "6",
            "type": "t_uint256"
          },
          {
            "astId": 3875,
            "contract": "contracts/Prodex.sol:Prodex",
            "label": "betTeamA",
            "offset": 0,
            "slot": "7",
            "type": "t_array(t_address)dyn_storage"
          },
          {
            "astId": 3878,
            "contract": "contracts/Prodex.sol:Prodex",
            "label": "betTeamB",
            "offset": 0,
            "slot": "8",
            "type": "t_array(t_address)dyn_storage"
          },
          {
            "astId": 3881,
            "contract": "contracts/Prodex.sol:Prodex",
            "label": "betDraw",
            "offset": 0,
            "slot": "9",
            "type": "t_array(t_address)dyn_storage"
          },
          {
            "astId": 3884,
            "contract": "contracts/Prodex.sol:Prodex",
            "label": "state",
            "offset": 0,
            "slot": "10",
            "type": "t_enum(EventState)3891"
          }
        ],
        "numberOfBytes": "352"
      },
      "t_uint256": {
        "encoding": "inplace",
        "label": "uint256",
        "numberOfBytes": "32"
      },
      "t_uint8": {
        "encoding": "inplace",
        "label": "uint8",
        "numberOfBytes": "1"
      }
    }
  }
}