{
  "address": "0xD45CabbB6e3780Bf754584D6D9D9CB180cfD9f55",
  "abi": [
    {
      "anonymous": false,
      "inputs": [
        {
          "indexed": true,
          "internalType": "address",
          "name": "previousOwner",
          "type": "address"
        },
        {
          "indexed": true,
          "internalType": "address",
          "name": "newOwner",
          "type": "address"
        }
      ],
      "name": "OwnershipTransferred",
      "type": "event"
    },
    {
      "anonymous": false,
      "inputs": [
        {
          "indexed": true,
          "internalType": "uint32",
          "name": "requestId",
          "type": "uint32"
        },
        {
          "indexed": false,
          "internalType": "uint256",
          "name": "randomNumber",
          "type": "uint256"
        }
      ],
      "name": "RandomNumberCompleted",
      "type": "event"
    },
    {
      "anonymous": false,
      "inputs": [
        {
          "indexed": false,
          "internalType": "uint256",
          "name": "number",
          "type": "uint256"
        }
      ],
      "name": "RandomNumberGetted",
      "type": "event"
    },
    {
      "anonymous": false,
      "inputs": [
        {
          "indexed": true,
          "internalType": "uint32",
          "name": "requestId",
          "type": "uint32"
        },
        {
          "indexed": true,
          "internalType": "address",
          "name": "sender",
          "type": "address"
        }
      ],
      "name": "RandomNumberRequested",
      "type": "event"
    },
    {
      "inputs": [],
      "name": "getLastRequestId",
      "outputs": [
        {
          "internalType": "uint32",
          "name": "requestId",
          "type": "uint32"
        }
      ],
      "stateMutability": "view",
      "type": "function"
    },
    {
      "inputs": [
        {
          "internalType": "uint32",
          "name": "requestId",
          "type": "uint32"
        }
      ],
      "name": "getRandomNumber",
      "outputs": [
        {
          "internalType": "uint256",
          "name": "random",
          "type": "uint256"
        }
      ],
      "stateMutability": "view",
      "type": "function"
    },
    {
      "inputs": [],
      "name": "getRequestFee",
      "outputs": [
        {
          "internalType": "address",
          "name": "feeToken",
          "type": "address"
        },
        {
          "internalType": "uint256",
          "name": "requestFee",
          "type": "uint256"
        }
      ],
      "stateMutability": "pure",
      "type": "function"
    },
    {
      "inputs": [
        {
          "internalType": "uint32",
          "name": "requestId",
          "type": "uint32"
        }
      ],
      "name": "isRequestComplete",
      "outputs": [
        {
          "internalType": "bool",
          "name": "isCompleted",
          "type": "bool"
        }
      ],
      "stateMutability": "view",
      "type": "function"
    },
    {
      "inputs": [],
      "name": "owner",
      "outputs": [
        {
          "internalType": "address",
          "name": "",
          "type": "address"
        }
      ],
      "stateMutability": "view",
      "type": "function"
    },
    {
      "inputs": [
        {
          "internalType": "uint32",
          "name": "requestId",
          "type": "uint32"
        }
      ],
      "name": "randomNumber",
      "outputs": [
        {
          "internalType": "uint256",
          "name": "randomNum",
          "type": "uint256"
        }
      ],
      "stateMutability": "nonpayable",
      "type": "function"
    },
    {
      "inputs": [],
      "name": "renounceOwnership",
      "outputs": [],
      "stateMutability": "nonpayable",
      "type": "function"
    },
    {
      "inputs": [],
      "name": "requestRandomNumber",
      "outputs": [
        {
          "internalType": "uint32",
          "name": "",
          "type": "uint32"
        },
        {
          "internalType": "uint32",
          "name": "",
          "type": "uint32"
        }
      ],
      "stateMutability": "nonpayable",
      "type": "function"
    },
    {
      "inputs": [
        {
          "internalType": "address",
          "name": "newOwner",
          "type": "address"
        }
      ],
      "name": "transferOwnership",
      "outputs": [],
      "stateMutability": "nonpayable",
      "type": "function"
    }
  ],
  "transactionHash": "0x158f350dd620675f4efd6e8a218e507135e0bf83bdcadd9cb4a59258b4c8c6bb",
  "args": [],
  "numDeployments": 1,
  "solcInputHash": "b7126e43204a43092d366355148c0298",
  "bytecode": "0x608060405234801561001057600080fd5b5061001a3361001f565b61006f565b600080546001600160a01b038381166001600160a01b0319831681178455604051919092169283917f8be0079c531659141344cd1fd0a4f28419497f9722a3daafe3b4186f6b6457e09190a35050565b61061d8061007e6000396000f3fe608060405234801561001057600080fd5b50600436106100935760003560e01c80638678a7b2116100665780638678a7b21461010357806389e433dd146101285780638da5cb5b1461014d5780639d2a5f9814610168578063f2fde38b1461017b57600080fd5b80630d37b5371461009857806319c2b4c3146100b15780633a19b9bc146100d6578063715018a6146100f9575b600080fd5b6040805160008082526020820152015b60405180910390f35b600054600160a01b900463ffffffff1660405163ffffffff90911681526020016100a8565b6100e96100e4366004610548565b61018e565b60405190151581526020016100a8565b61010161019f565b005b61010b6101b3565b6040805163ffffffff9384168152929091166020830152016100a8565b61013f610136366004610548565b50633b8875ce90565b6040519081526020016100a8565b6000546040516001600160a01b0390911681526020016100a8565b61013f610176366004610548565b61021b565b610101610189366004610518565b610305565b60006101998261037e565b92915050565b6101a76103b1565b6101b1600061040b565b565b60008060006101c061045b565b63ffffffff818116600081815260026020526040808220805463ffffffff19164395861617905551939450919233927fcf635b20f2defc1e71326dc4f0b616fa676e29a5bae87da19fcaddc550b33f0391a390939092509050565b60006102268261037e565b6102775760405162461bcd60e51b815260206004820152601f60248201527f524e47426c6f636b686173682f726571756573742d696e636f6d706c6574650060448201526064015b60405180910390fd5b63ffffffff82166000908152600160205260409020546102a2576102a28261029d6104af565b6104c2565b63ffffffff82166000908152600160209081526040918290205491519182527fce939f28c2d7beed3b602c39432ed6a5ccfb36bebe8b5445f6991c3dd4517b3e910160405180910390a15063ffffffff1660009081526001602052604090205490565b61030d6103b1565b6001600160a01b0381166103725760405162461bcd60e51b815260206004820152602660248201527f4f776e61626c653a206e6577206f776e657220697320746865207a65726f206160448201526564647265737360d01b606482015260840161026e565b61037b8161040b565b50565b63ffffffff80821660009081526002602052604081205490916103a39116600161056e565b63ffffffff16431192915050565b6000546001600160a01b031633146101b15760405162461bcd60e51b815260206004820181905260248201527f4f776e61626c653a2063616c6c6572206973206e6f7420746865206f776e6572604482015260640161026e565b600080546001600160a01b038381166001600160a01b0319831681178455604051919092169283917f8be0079c531659141344cd1fd0a4f28419497f9722a3daafe3b4186f6b6457e09190a35050565b60008054600160a01b900463ffffffff16816014610478836105ad565b91906101000a81548163ffffffff021916908363ffffffff16021790555050600060149054906101000a900463ffffffff16905090565b60006104bc600143610596565b40919050565b63ffffffff821660008181526001602052604090819020839055517f629394f18de7accce1179c28c39be59503a57cbcf45980a2772743b041b362719061050c9084815260200190565b60405180910390a25050565b60006020828403121561052a57600080fd5b81356001600160a01b038116811461054157600080fd5b9392505050565b60006020828403121561055a57600080fd5b813563ffffffff8116811461054157600080fd5b600063ffffffff80831681851680830382111561058d5761058d6105d1565b01949350505050565b6000828210156105a8576105a86105d1565b500390565b600063ffffffff808316818114156105c7576105c76105d1565b6001019392505050565b634e487b7160e01b600052601160045260246000fdfea2646970667358221220ddc20f5688c5a557947e85bf37b1451f7071e24dbc4027e27bf3e00ba1febfed64736f6c63430008060033",
  "devdoc": {
    "kind": "dev",
    "methods": {
      "getLastRequestId()": {
        "returns": {
          "requestId": "The last request id used in the last request"
        }
      },
      "getRequestFee()": {
        "returns": {
          "feeToken": "The address of the token that is used to pay fees",
          "requestFee": "The fee required to be paid to make a request"
        }
      },
      "isRequestComplete(uint32)": {
        "details": "For time-delayed requests, this function is used to check/confirm completion",
        "params": {
          "requestId": "The ID of the request used to get the results of the RNG service"
        },
        "returns": {
          "isCompleted": "True if the request has completed and a random number is available, false otherwise"
        }
      },
      "owner()": {
        "details": "Returns the address of the current owner."
      },
      "randomNumber(uint32)": {
        "params": {
          "requestId": "The ID of the request used to get the results of the RNG service"
        },
        "returns": {
          "randomNum": "The random number"
        }
      },
      "renounceOwnership()": {
        "details": "Leaves the contract without owner. It will not be possible to call `onlyOwner` functions anymore. Can only be called by the current owner. NOTE: Renouncing ownership will leave the contract without an owner, thereby removing any functionality that is only available to the owner."
      },
      "requestRandomNumber()": {
        "details": "Some services will complete the request immediately, others may have a time-delaySome services require payment in the form of a token, such as $LINK for Chainlink VRF",
        "returns": {
          "_0": "requestId The ID of the request used to get the results of the RNG service",
          "_1": "lockBlock The block number at which the RNG service will start generating time-delayed randomness.  The calling contract should \"lock\" all activity until the result is available via the `requestId`"
        }
      },
      "transferOwnership(address)": {
        "details": "Transfers ownership of the contract to a new account (`newOwner`). Can only be called by the current owner."
      }
    },
    "stateVariables": {
      "randomNumbers": {
        "details": "A list of random numbers from past requests mapped by request id"
      },
      "requestCount": {
        "details": "A counter for the number of requests made used for request ids"
      },
      "requestLockBlock": {
        "details": "A list of blocks to be locked at based on past requests mapped by request id"
      }
    },
    "version": 1
  },
  "userdoc": {
    "events": {
      "RandomNumberCompleted(uint32,uint256)": {
        "notice": "Emitted when an existing request for a random number has been completed"
      },
      "RandomNumberRequested(uint32,address)": {
        "notice": "Emitted when a new request for a random number has been submitted"
      }
    },
    "kind": "user",
    "methods": {
      "getLastRequestId()": {
        "notice": "Gets the last request id used by the RNG service"
      },
      "getRequestFee()": {
        "notice": "Gets the Fee for making a Request against an RNG service"
      },
      "isRequestComplete(uint32)": {
        "notice": "Checks if the request for randomness from the 3rd-party service has completed"
      },
      "randomNumber(uint32)": {
        "notice": "Gets the random number produced by the 3rd-party service"
      },
      "requestRandomNumber()": {
        "notice": "Sends a request for a random number to the 3rd-party service"
      }
    },
    "version": 1
  },
  "storageLayout": {
    "storage": [
      {
        "astId": 7,
        "contract": "contracts/RNGBlockhash.sol:RNGBlockhash",
        "label": "_owner",
        "offset": 0,
        "slot": "0",
        "type": "t_address"
      },
      {
        "astId": 146,
        "contract": "contracts/RNGBlockhash.sol:RNGBlockhash",
        "label": "requestCount",
        "offset": 20,
        "slot": "0",
        "type": "t_uint32"
      },
      {
        "astId": 151,
        "contract": "contracts/RNGBlockhash.sol:RNGBlockhash",
        "label": "randomNumbers",
        "offset": 0,
        "slot": "1",
        "type": "t_mapping(t_uint32,t_uint256)"
      },
      {
        "astId": 156,
        "contract": "contracts/RNGBlockhash.sol:RNGBlockhash",
        "label": "requestLockBlock",
        "offset": 0,
        "slot": "2",
        "type": "t_mapping(t_uint32,t_uint32)"
      }
    ],
    "types": {
      "t_address": {
        "encoding": "inplace",
        "label": "address",
        "numberOfBytes": "20"
      },
      "t_mapping(t_uint32,t_uint256)": {
        "encoding": "mapping",
        "key": "t_uint32",
        "label": "mapping(uint32 => uint256)",
        "numberOfBytes": "32",
        "value": "t_uint256"
      },
      "t_mapping(t_uint32,t_uint32)": {
        "encoding": "mapping",
        "key": "t_uint32",
        "label": "mapping(uint32 => uint32)",
        "numberOfBytes": "32",
        "value": "t_uint32"
      },
      "t_uint256": {
        "encoding": "inplace",
        "label": "uint256",
        "numberOfBytes": "32"
      },
      "t_uint32": {
        "encoding": "inplace",
        "label": "uint32",
        "numberOfBytes": "4"
      }
    }
  }
}