{
  "address": "0x40124c6665b75351Cf5492fBdaA0d5fA0B59ceFD",
  "abi": [
    {
      "inputs": [
        {
          "internalType": "address",
          "name": "_vrfCoordinator",
          "type": "address"
        },
        {
          "internalType": "address",
          "name": "_link",
          "type": "address"
        }
      ],
      "stateMutability": "nonpayable",
      "type": "constructor"
    },
    {
      "anonymous": false,
      "inputs": [
        {
          "indexed": false,
          "internalType": "uint256",
          "name": "fee",
          "type": "uint256"
        }
      ],
      "name": "FeeSet",
      "type": "event"
    },
    {
      "anonymous": false,
      "inputs": [
        {
          "indexed": false,
          "internalType": "bytes32",
          "name": "keyHash",
          "type": "bytes32"
        }
      ],
      "name": "KeyHashSet",
      "type": "event"
    },
    {
      "anonymous": false,
      "inputs": [
        {
          "indexed": true,
          "internalType": "address",
          "name": "previousOwner",
          "type": "address"
        },
        {
          "indexed": true,
          "internalType": "address",
          "name": "newOwner",
          "type": "address"
        }
      ],
      "name": "OwnershipTransferred",
      "type": "event"
    },
    {
      "anonymous": false,
      "inputs": [
        {
          "indexed": true,
          "internalType": "uint32",
          "name": "requestId",
          "type": "uint32"
        },
        {
          "indexed": false,
          "internalType": "uint256",
          "name": "randomNumber",
          "type": "uint256"
        }
      ],
      "name": "RandomNumberCompleted",
      "type": "event"
    },
    {
      "anonymous": false,
      "inputs": [
        {
          "indexed": true,
          "internalType": "uint32",
          "name": "requestId",
          "type": "uint32"
        },
        {
          "indexed": true,
          "internalType": "address",
          "name": "sender",
          "type": "address"
        }
      ],
      "name": "RandomNumberRequested",
      "type": "event"
    },
    {
      "anonymous": false,
      "inputs": [
        {
          "indexed": true,
          "internalType": "uint256",
          "name": "requestId",
          "type": "uint256"
        },
        {
          "indexed": true,
          "internalType": "bytes32",
          "name": "chainlinkRequestId",
          "type": "bytes32"
        }
      ],
      "name": "VRFRequested",
      "type": "event"
    },
    {
      "anonymous": false,
      "inputs": [
        {
          "indexed": true,
          "internalType": "address",
          "name": "vrfCoordinator",
          "type": "address"
        }
      ],
      "name": "VrfCoordinatorSet",
      "type": "event"
    },
    {
      "inputs": [],
      "name": "fee",
      "outputs": [
        {
          "internalType": "uint256",
          "name": "",
          "type": "uint256"
        }
      ],
      "stateMutability": "view",
      "type": "function"
    },
    {
      "inputs": [],
      "name": "getLastRequestId",
      "outputs": [
        {
          "internalType": "uint32",
          "name": "requestId",
          "type": "uint32"
        }
      ],
      "stateMutability": "view",
      "type": "function"
    },
    {
      "inputs": [],
      "name": "getLink",
      "outputs": [
        {
          "internalType": "address",
          "name": "",
          "type": "address"
        }
      ],
      "stateMutability": "view",
      "type": "function"
    },
    {
      "inputs": [],
      "name": "getRequestFee",
      "outputs": [
        {
          "internalType": "address",
          "name": "feeToken",
          "type": "address"
        },
        {
          "internalType": "uint256",
          "name": "requestFee",
          "type": "uint256"
        }
      ],
      "stateMutability": "view",
      "type": "function"
    },
    {
      "inputs": [
        {
          "internalType": "uint32",
          "name": "requestId",
          "type": "uint32"
        }
      ],
      "name": "isRequestComplete",
      "outputs": [
        {
          "internalType": "bool",
          "name": "isCompleted",
          "type": "bool"
        }
      ],
      "stateMutability": "view",
      "type": "function"
    },
    {
      "inputs": [],
      "name": "keyHash",
      "outputs": [
        {
          "internalType": "bytes32",
          "name": "",
          "type": "bytes32"
        }
      ],
      "stateMutability": "view",
      "type": "function"
    },
    {
      "inputs": [],
      "name": "owner",
      "outputs": [
        {
          "internalType": "address",
          "name": "",
          "type": "address"
        }
      ],
      "stateMutability": "view",
      "type": "function"
    },
    {
      "inputs": [
        {
          "internalType": "uint32",
          "name": "requestId",
          "type": "uint32"
        }
      ],
      "name": "randomNumber",
      "outputs": [
        {
          "internalType": "uint256",
          "name": "randomNum",
          "type": "uint256"
        }
      ],
      "stateMutability": "view",
      "type": "function"
    },
    {
      "inputs": [
        {
          "internalType": "bytes32",
          "name": "requestId",
          "type": "bytes32"
        },
        {
          "internalType": "uint256",
          "name": "randomness",
          "type": "uint256"
        }
      ],
      "name": "rawFulfillRandomness",
      "outputs": [],
      "stateMutability": "nonpayable",
      "type": "function"
    },
    {
      "inputs": [],
      "name": "renounceOwnership",
      "outputs": [],
      "stateMutability": "nonpayable",
      "type": "function"
    },
    {
      "inputs": [],
      "name": "requestCount",
      "outputs": [
        {
          "internalType": "uint32",
          "name": "",
          "type": "uint32"
        }
      ],
      "stateMutability": "view",
      "type": "function"
    },
    {
      "inputs": [],
      "name": "requestRandomNumber",
      "outputs": [
        {
          "internalType": "uint32",
          "name": "requestId",
          "type": "uint32"
        },
        {
          "internalType": "uint32",
          "name": "lockBlock",
          "type": "uint32"
        }
      ],
      "stateMutability": "nonpayable",
      "type": "function"
    },
    {
      "inputs": [
        {
          "internalType": "uint256",
          "name": "_fee",
          "type": "uint256"
        }
      ],
      "name": "setFee",
      "outputs": [],
      "stateMutability": "nonpayable",
      "type": "function"
    },
    {
      "inputs": [
        {
          "internalType": "bytes32",
          "name": "_keyhash",
          "type": "bytes32"
        }
      ],
      "name": "setKeyhash",
      "outputs": [],
      "stateMutability": "nonpayable",
      "type": "function"
    },
    {
      "inputs": [
        {
          "internalType": "address",
          "name": "newOwner",
          "type": "address"
        }
      ],
      "name": "transferOwnership",
      "outputs": [],
      "stateMutability": "nonpayable",
      "type": "function"
    }
  ],
  "transactionHash": "0x4adcdda021df5c8225aa8da303c9753316a586374ce90c8e30fdcde6f745ebad",
  "args": [
    "0x6A2AAd07396B36Fe02a22b33cf443582f682c82f",
    "0x84b9B910527Ad5C03A9Ca831909E21e236EA7b06"
  ],
  "numDeployments": 1,
  "solcInputHash": "510d0f812d878741de5d68b4ff1bda2d",
  "bytecode": "0x60c060405234801561001057600080fd5b50604051610c16380380610c1683398101604081905261002f91610101565b6001600160601b0319606083811b821660a05282901b166080526100586100533390565b610093565b6040516001600160a01b038316907f4cc41e06d3d0588be9be0e1469ba1934c4bd1cb8f4f70adf2aa31f4b92134b2790600090a25050610134565b600180546001600160a01b038381166001600160a01b0319831681179093556040519116919082907f8be0079c531659141344cd1fd0a4f28419497f9722a3daafe3b4186f6b6457e090600090a35050565b80516001600160a01b03811681146100fc57600080fd5b919050565b6000806040838503121561011457600080fd5b61011d836100e5565b915061012b602084016100e5565b90509250929050565b60805160601c60a05160601c610a9b61017b600039600081816104bd015261079e015260008181610102015281816102840152818161037b015261076f0152610a9b6000f3fe608060405234801561001057600080fd5b50600436106100f55760003560e01c8063715018a6116100975780639d2a5f98116100665780639d2a5f9814610253578063ddca3f4314610279578063e2d84e2314610282578063f2fde38b146102a857600080fd5b8063715018a6146101ee5780638678a7b2146101f65780638da5cb5b1461021b57806394985ddd1461024057600080fd5b80635badbe4c116100d35780635badbe4c1461019f57806361728f39146101af5780636309b773146101c657806369fe0e2d146101db57600080fd5b80630d37b537146100fa57806319c2b4c3146101485780633a19b9bc14610167575b600080fd5b6101246003547f000000000000000000000000000000000000000000000000000000000000000091565b604080516001600160a01b0390931683526020830191909152015b60405180910390f35b60045463ffffffff165b60405163ffffffff909116815260200161013f565b61018f610175366004610981565b63ffffffff16600090815260056020526040902054151590565b604051901515815260200161013f565b6004546101529063ffffffff1681565b6101b860025481565b60405190815260200161013f565b6101d96101d4366004610946565b6102bb565b005b6101d96101e9366004610946565b6102ff565b6101d961033c565b6101fe610350565b6040805163ffffffff93841681529290911660208301520161013f565b6001546001600160a01b03165b6040516001600160a01b03909116815260200161013f565b6101d961024e36600461095f565b6104b2565b6101b8610261366004610981565b63ffffffff1660009081526005602052604090205490565b6101b860035481565b7f0000000000000000000000000000000000000000000000000000000000000000610228565b6101d96102b63660046108f4565b610538565b6102c36105b1565b60028190556040518181527fd013f86c8346660ebf421351882cd1b3c2f91883092df1800264c656b0db0cc6906020015b60405180910390a150565b6103076105b1565b60038190556040518181527f20461e09b8e557b77e107939f9ce6544698123aad0fc964ac5cc59b7df2e608f906020016102f4565b6103446105b1565b61034e600061060b565b565b6003546040516323b872dd60e01b8152336004820152306024820152604481019190915260009043907f00000000000000000000000000000000000000000000000000000000000000006001600160a01b0316906323b872dd90606401602060405180830381600087803b1580156103c757600080fd5b505af11580156103db573d6000803e3d6000fd5b505050506040513d601f19601f820116820180604052508101906103ff9190610924565b6104505760405162461bcd60e51b815260206004820181905260248201527f524e47436861696e6c696e6b2f6665652d7472616e736665722d6661696c656460448201526064015b60405180910390fd5b61045861065d565b63ffffffff818116600081815260066020526040808220805463ffffffff1916948716949094179093559151929450339290917fcf635b20f2defc1e71326dc4f0b616fa676e29a5bae87da19fcaddc550b33f0391a39091565b336001600160a01b037f0000000000000000000000000000000000000000000000000000000000000000161461052a5760405162461bcd60e51b815260206004820152601f60248201527f4f6e6c7920565246436f6f7264696e61746f722063616e2066756c66696c6c006044820152606401610447565b61053482826106ce565b5050565b6105406105b1565b6001600160a01b0381166105a55760405162461bcd60e51b815260206004820152602660248201527f4f776e61626c653a206e6577206f776e657220697320746865207a65726f206160448201526564647265737360d01b6064820152608401610447565b6105ae8161060b565b50565b6001546001600160a01b0316331461034e5760405162461bcd60e51b815260206004820181905260248201527f4f776e61626c653a2063616c6c6572206973206e6f7420746865206f776e65726044820152606401610447565b600180546001600160a01b038381166001600160a01b0319831681179093556040519116919082907f8be0079c531659141344cd1fd0a4f28419497f9722a3daafe3b4186f6b6457e090600090a35050565b600061066761072a565b9050600061067960025460035461076b565b600081815260076020526040808220805463ffffffff191663ffffffff87169081179091559051929350839290917ff7617d06180c24c92bad8c8436c3ae97409a09e1f5655da6c0807f50c5f9674891a35090565b60008281526007602090815260408083205463ffffffff1680845260058352928190208490555183815282917f629394f18de7accce1179c28c39be59503a57cbcf45980a2772743b041b36271910160405180910390a2505050565b6004805460009163ffffffff909116908261074483610a2b565b82546101009290920a63ffffffff8181021990931691831602179091556004541692915050565b60007f00000000000000000000000000000000000000000000000000000000000000006001600160a01b0316634000aea07f0000000000000000000000000000000000000000000000000000000000000000848660006040516020016107db929190918252602082015260400190565b6040516020818303038152906040526040518463ffffffff1660e01b8152600401610808939291906109a7565b602060405180830381600087803b15801561082257600080fd5b505af1158015610836573d6000803e3d6000fd5b505050506040513d601f19601f8201168201806040525081019061085a9190610924565b5060008381526020818152604080832054815180840188905280830185905230606082015260808082018390528351808303909101815260a0909101909252815191830191909120868452929091526108b4906001610a13565b6000858152602081815260409182902092909255805180830187905280820184905281518082038301815260609091019091528051910120949350505050565b60006020828403121561090657600080fd5b81356001600160a01b038116811461091d57600080fd5b9392505050565b60006020828403121561093657600080fd5b8151801515811461091d57600080fd5b60006020828403121561095857600080fd5b5035919050565b6000806040838503121561097257600080fd5b50508035926020909101359150565b60006020828403121561099357600080fd5b813563ffffffff8116811461091d57600080fd5b60018060a01b038416815260006020848184015260606040840152835180606085015260005b818110156109e9578581018301518582016080015282016109cd565b818111156109fb576000608083870101525b50601f01601f19169290920160800195945050505050565b60008219821115610a2657610a26610a4f565b500190565b600063ffffffff80831681811415610a4557610a45610a4f565b6001019392505050565b634e487b7160e01b600052601160045260246000fdfea264697066735822122071854fc8c5397d0058dd8ed35eb9d21339a694246d18ba3d24c3e2fe415eb22864736f6c63430008060033",
  "devdoc": {
    "kind": "dev",
    "methods": {
      "constructor": {
        "details": "Public constructor"
      },
      "getLastRequestId()": {
        "returns": {
          "requestId": "The last request id used in the last request"
        }
      },
      "getRequestFee()": {
        "returns": {
          "feeToken": "The address of the token that is used to pay fees",
          "requestFee": "The fee required to be paid to make a request"
        }
      },
      "isRequestComplete(uint32)": {
        "details": "For time-delayed requests, this function is used to check/confirm completion",
        "params": {
          "requestId": "The ID of the request used to get the results of the RNG service"
        },
        "returns": {
          "isCompleted": "True if the request has completed and a random number is available, false otherwise"
        }
      },
      "owner()": {
        "details": "Returns the address of the current owner."
      },
      "randomNumber(uint32)": {
        "params": {
          "requestId": "The ID of the request used to get the results of the RNG service"
        },
        "returns": {
          "randomNum": "The random number"
        }
      },
      "renounceOwnership()": {
        "details": "Leaves the contract without owner. It will not be possible to call `onlyOwner` functions anymore. Can only be called by the current owner. NOTE: Renouncing ownership will leave the contract without an owner, thereby removing any functionality that is only available to the owner."
      },
      "requestRandomNumber()": {
        "details": "Some services will complete the request immediately, others may have a time-delaySome services require payment in the form of a token, such as $LINK for Chainlink VRF",
        "returns": {
          "lockBlock": "The block number at which the RNG service will start generating time-delayed randomness.  The calling contract should \"lock\" all activity until the result is available via the `requestId`",
          "requestId": "The ID of the request used to get the results of the RNG service"
        }
      },
      "setFee(uint256)": {
        "params": {
          "_fee": "The fee to be charged for a request"
        }
      },
      "setKeyhash(bytes32)": {
        "params": {
          "_keyhash": "The keyhash to be used by the VRF"
        }
      },
      "transferOwnership(address)": {
        "details": "Transfers ownership of the contract to a new account (`newOwner`). Can only be called by the current owner."
      }
    },
    "stateVariables": {
      "chainlinkRequestIds": {
        "details": "A mapping from Chainlink request ids to internal request ids"
      },
      "fee": {
        "details": "The request fee of the Chainlink VRF"
      },
      "keyHash": {
        "details": "The keyhash used by the Chainlink VRF"
      },
      "randomNumbers": {
        "details": "A list of random numbers from past requests mapped by request id"
      },
      "requestCount": {
        "details": "A counter for the number of requests made used for request ids"
      },
      "requestLockBlock": {
        "details": "A list of blocks to be locked at based on past requests mapped by request id"
      }
    },
    "version": 1
  },
  "userdoc": {
    "events": {
      "RandomNumberCompleted(uint32,uint256)": {
        "notice": "Emitted when an existing request for a random number has been completed"
      },
      "RandomNumberRequested(uint32,address)": {
        "notice": "Emitted when a new request for a random number has been submitted"
      }
    },
    "kind": "user",
    "methods": {
      "getLastRequestId()": {
        "notice": "Gets the last request id used by the RNG service"
      },
      "getRequestFee()": {
        "notice": "Gets the Fee for making a Request against an RNG service"
      },
      "isRequestComplete(uint32)": {
        "notice": "Checks if the request for randomness from the 3rd-party service has completed"
      },
      "randomNumber(uint32)": {
        "notice": "Gets the random number produced by the 3rd-party service"
      },
      "requestRandomNumber()": {
        "notice": "Sends a request for a random number to the 3rd-party service"
      },
      "setFee(uint256)": {
        "notice": "Allows governance to set the fee per request required by the VRF"
      },
      "setKeyhash(bytes32)": {
        "notice": "Allows governance to set the VRF keyhash"
      }
    },
    "version": 1
  },
  "storageLayout": {
    "storage": [
      {
        "astId": 79,
        "contract": "contracts/RNGChainlink.sol:RNGChainlink",
        "label": "nonces",
        "offset": 0,
        "slot": "0",
        "type": "t_mapping(t_bytes32,t_uint256)"
      },
      {
        "astId": 420,
        "contract": "contracts/RNGChainlink.sol:RNGChainlink",
        "label": "_owner",
        "offset": 0,
        "slot": "1",
        "type": "t_address"
      },
      {
        "astId": 1041,
        "contract": "contracts/RNGChainlink.sol:RNGChainlink",
        "label": "keyHash",
        "offset": 0,
        "slot": "2",
        "type": "t_bytes32"
      },
      {
        "astId": 1044,
        "contract": "contracts/RNGChainlink.sol:RNGChainlink",
        "label": "fee",
        "offset": 0,
        "slot": "3",
        "type": "t_uint256"
      },
      {
        "astId": 1047,
        "contract": "contracts/RNGChainlink.sol:RNGChainlink",
        "label": "requestCount",
        "offset": 0,
        "slot": "4",
        "type": "t_uint32"
      },
      {
        "astId": 1052,
        "contract": "contracts/RNGChainlink.sol:RNGChainlink",
        "label": "randomNumbers",
        "offset": 0,
        "slot": "5",
        "type": "t_mapping(t_uint32,t_uint256)"
      },
      {
        "astId": 1057,
        "contract": "contracts/RNGChainlink.sol:RNGChainlink",
        "label": "requestLockBlock",
        "offset": 0,
        "slot": "6",
        "type": "t_mapping(t_uint32,t_uint32)"
      },
      {
        "astId": 1062,
        "contract": "contracts/RNGChainlink.sol:RNGChainlink",
        "label": "chainlinkRequestIds",
        "offset": 0,
        "slot": "7",
        "type": "t_mapping(t_bytes32,t_uint32)"
      }
    ],
    "types": {
      "t_address": {
        "encoding": "inplace",
        "label": "address",
        "numberOfBytes": "20"
      },
      "t_bytes32": {
        "encoding": "inplace",
        "label": "bytes32",
        "numberOfBytes": "32"
      },
      "t_mapping(t_bytes32,t_uint256)": {
        "encoding": "mapping",
        "key": "t_bytes32",
        "label": "mapping(bytes32 => uint256)",
        "numberOfBytes": "32",
        "value": "t_uint256"
      },
      "t_mapping(t_bytes32,t_uint32)": {
        "encoding": "mapping",
        "key": "t_bytes32",
        "label": "mapping(bytes32 => uint32)",
        "numberOfBytes": "32",
        "value": "t_uint32"
      },
      "t_mapping(t_uint32,t_uint256)": {
        "encoding": "mapping",
        "key": "t_uint32",
        "label": "mapping(uint32 => uint256)",
        "numberOfBytes": "32",
        "value": "t_uint256"
      },
      "t_mapping(t_uint32,t_uint32)": {
        "encoding": "mapping",
        "key": "t_uint32",
        "label": "mapping(uint32 => uint32)",
        "numberOfBytes": "32",
        "value": "t_uint32"
      },
      "t_uint256": {
        "encoding": "inplace",
        "label": "uint256",
        "numberOfBytes": "32"
      },
      "t_uint32": {
        "encoding": "inplace",
        "label": "uint32",
        "numberOfBytes": "4"
      }
    }
  }
}