{
  "address": "0x9fE46736679d2D9a65F0992F2272dE9f3c7fa6e0",
  "abi": [
    {
      "inputs": [
        {
          "internalType": "address",
          "name": "_token",
          "type": "address"
        },
        {
          "internalType": "address",
          "name": "_ngo",
          "type": "address"
        },
        {
          "internalType": "address",
          "name": "_oracle",
          "type": "address"
        },
        {
          "internalType": "uint256",
          "name": "_ngoDonationPercentage",
          "type": "uint256"
        },
        {
          "internalType": "uint256",
          "name": "_maxEvents",
          "type": "uint256"
        },
        {
          "internalType": "uint256",
          "name": "_minWinnerPoints",
          "type": "uint256"
        }
      ],
      "stateMutability": "nonpayable",
      "type": "constructor"
    },
    {
      "anonymous": false,
      "inputs": [
        {
          "indexed": false,
          "internalType": "uint256",
          "name": "eventId",
          "type": "uint256"
        },
        {
          "indexed": true,
          "internalType": "address",
          "name": "who",
          "type": "address"
        },
        {
          "indexed": false,
          "internalType": "enum IProde.BetOdd",
          "name": "bet",
          "type": "uint8"
        },
        {
          "indexed": false,
          "internalType": "uint256",
          "name": "amount",
          "type": "uint256"
        }
      ],
      "name": "BetPlaced",
      "type": "event"
    },
    {
      "anonymous": false,
      "inputs": [
        {
          "indexed": false,
          "internalType": "uint256",
          "name": "ngoPrize",
          "type": "uint256"
        }
      ],
      "name": "ClaimNGO",
      "type": "event"
    },
    {
      "anonymous": false,
      "inputs": [
        {
          "indexed": true,
          "internalType": "address",
          "name": "who",
          "type": "address"
        },
        {
          "indexed": true,
          "internalType": "address",
          "name": "to",
          "type": "address"
        }
      ],
      "name": "ClaimPrize",
      "type": "event"
    },
    {
      "anonymous": false,
      "inputs": [
        {
          "indexed": false,
          "internalType": "uint256",
          "name": "eventId",
          "type": "uint256"
        },
        {
          "indexed": false,
          "internalType": "uint256",
          "name": "blockInit",
          "type": "uint256"
        },
        {
          "indexed": false,
          "internalType": "uint256",
          "name": "blockEnd",
          "type": "uint256"
        }
      ],
      "name": "EventActive",
      "type": "event"
    },
    {
      "anonymous": false,
      "inputs": [
        {
          "indexed": false,
          "internalType": "uint256",
          "name": "eventId",
          "type": "uint256"
        }
      ],
      "name": "EventBetsFinished",
      "type": "event"
    },
    {
      "anonymous": false,
      "inputs": [
        {
          "indexed": false,
          "internalType": "uint256",
          "name": "eventId",
          "type": "uint256"
        }
      ],
      "name": "EventCreated",
      "type": "event"
    },
    {
      "anonymous": false,
      "inputs": [
        {
          "indexed": false,
          "internalType": "uint256",
          "name": "eventId",
          "type": "uint256"
        },
        {
          "indexed": false,
          "internalType": "uint8",
          "name": "result",
          "type": "uint8"
        }
      ],
      "name": "EventOutcome",
      "type": "event"
    },
    {
      "anonymous": false,
      "inputs": [
        {
          "indexed": false,
          "internalType": "address",
          "name": "token",
          "type": "address"
        },
        {
          "indexed": false,
          "internalType": "address",
          "name": "NGO",
          "type": "address"
        },
        {
          "indexed": false,
          "internalType": "address",
          "name": "oracle",
          "type": "address"
        },
        {
          "indexed": false,
          "internalType": "uint256",
          "name": "NGODonationPercentage",
          "type": "uint256"
        },
        {
          "indexed": false,
          "internalType": "uint256",
          "name": "maxEvents",
          "type": "uint256"
        },
        {
          "indexed": false,
          "internalType": "uint256",
          "name": "minWinnerPoints",
          "type": "uint256"
        }
      ],
      "name": "Initialized",
      "type": "event"
    },
    {
      "anonymous": false,
      "inputs": [
        {
          "indexed": false,
          "internalType": "uint256",
          "name": "oldMinPoints",
          "type": "uint256"
        },
        {
          "indexed": false,
          "internalType": "uint256",
          "name": "newMinPoints",
          "type": "uint256"
        }
      ],
      "name": "MinWinnerPointsUpdated",
      "type": "event"
    },
    {
      "anonymous": false,
      "inputs": [
        {
          "indexed": true,
          "internalType": "address",
          "name": "previousOwner",
          "type": "address"
        },
        {
          "indexed": true,
          "internalType": "address",
          "name": "newOwner",
          "type": "address"
        }
      ],
      "name": "OwnershipTransferred",
      "type": "event"
    },
    {
      "anonymous": false,
      "inputs": [
        {
          "indexed": false,
          "internalType": "uint256",
          "name": "ngoPrize",
          "type": "uint256"
        },
        {
          "indexed": false,
          "internalType": "uint256",
          "name": "winnerPrize",
          "type": "uint256"
        },
        {
          "indexed": false,
          "internalType": "uint256",
          "name": "totalAmountToShare",
          "type": "uint256"
        },
        {
          "indexed": false,
          "internalType": "uint256",
          "name": "winners",
          "type": "uint256"
        }
      ],
      "name": "PrizesSet",
      "type": "event"
    },
    {
      "anonymous": false,
      "inputs": [
        {
          "indexed": false,
          "internalType": "uint256",
          "name": "eventId",
          "type": "uint256"
        },
        {
          "indexed": false,
          "internalType": "uint256",
          "name": "amountOfWinners",
          "type": "uint256"
        }
      ],
      "name": "UpdateWinnersEvent",
      "type": "event"
    },
    {
      "inputs": [],
      "name": "NGO",
      "outputs": [
        {
          "internalType": "address",
          "name": "",
          "type": "address"
        }
      ],
      "stateMutability": "view",
      "type": "function"
    },
    {
      "inputs": [],
      "name": "NGODonationPercentage",
      "outputs": [
        {
          "internalType": "uint256",
          "name": "",
          "type": "uint256"
        }
      ],
      "stateMutability": "view",
      "type": "function"
    },
    {
      "inputs": [
        {
          "components": [
            {
              "internalType": "bool",
              "name": "active",
              "type": "bool"
            },
            {
              "internalType": "uint8",
              "name": "eventOutcome",
              "type": "uint8"
            },
            {
              "internalType": "string",
              "name": "name",
              "type": "string"
            },
            {
              "internalType": "uint256",
              "name": "thresholdInit",
              "type": "uint256"
            },
            {
              "internalType": "uint256",
              "name": "thresholdEnd",
              "type": "uint256"
            },
            {
              "internalType": "uint256",
              "name": "blockInit",
              "type": "uint256"
            },
            {
              "internalType": "uint256",
              "name": "blockEnd",
              "type": "uint256"
            },
            {
              "internalType": "uint256",
              "name": "poolSize",
              "type": "uint256"
            },
            {
              "internalType": "address[]",
              "name": "betTeamA",
              "type": "address[]"
            },
            {
              "internalType": "address[]",
              "name": "betTeamB",
              "type": "address[]"
            },
            {
              "internalType": "address[]",
              "name": "betDraw",
              "type": "address[]"
            },
            {
              "internalType": "enum IProde.EventState",
              "name": "state",
              "type": "uint8"
            }
          ],
          "internalType": "struct Prodex.Event",
          "name": "_event",
          "type": "tuple"
        }
      ],
      "name": "addEvent",
      "outputs": [
        {
          "internalType": "uint256",
          "name": "",
          "type": "uint256"
        }
      ],
      "stateMutability": "nonpayable",
      "type": "function"
    },
    {
      "inputs": [
        {
          "components": [
            {
              "internalType": "bool",
              "name": "active",
              "type": "bool"
            },
            {
              "internalType": "uint8",
              "name": "eventOutcome",
              "type": "uint8"
            },
            {
              "internalType": "string",
              "name": "name",
              "type": "string"
            },
            {
              "internalType": "uint256",
              "name": "thresholdInit",
              "type": "uint256"
            },
            {
              "internalType": "uint256",
              "name": "thresholdEnd",
              "type": "uint256"
            },
            {
              "internalType": "uint256",
              "name": "blockInit",
              "type": "uint256"
            },
            {
              "internalType": "uint256",
              "name": "blockEnd",
              "type": "uint256"
            },
            {
              "internalType": "uint256",
              "name": "poolSize",
              "type": "uint256"
            },
            {
              "internalType": "address[]",
              "name": "betTeamA",
              "type": "address[]"
            },
            {
              "internalType": "address[]",
              "name": "betTeamB",
              "type": "address[]"
            },
            {
              "internalType": "address[]",
              "name": "betDraw",
              "type": "address[]"
            },
            {
              "internalType": "enum IProde.EventState",
              "name": "state",
              "type": "uint8"
            }
          ],
          "internalType": "struct Prodex.Event[]",
          "name": "_events",
          "type": "tuple[]"
        }
      ],
      "name": "addEvents",
      "outputs": [],
      "stateMutability": "nonpayable",
      "type": "function"
    },
    {
      "inputs": [],
      "name": "claimONG",
      "outputs": [],
      "stateMutability": "nonpayable",
      "type": "function"
    },
    {
      "inputs": [
        {
          "internalType": "address",
          "name": "to",
          "type": "address"
        }
      ],
      "name": "claimPrize",
      "outputs": [],
      "stateMutability": "nonpayable",
      "type": "function"
    },
    {
      "inputs": [
        {
          "internalType": "uint256",
          "name": "",
          "type": "uint256"
        }
      ],
      "name": "events",
      "outputs": [
        {
          "internalType": "bool",
          "name": "active",
          "type": "bool"
        },
        {
          "internalType": "uint8",
          "name": "eventOutcome",
          "type": "uint8"
        },
        {
          "internalType": "string",
          "name": "name",
          "type": "string"
        },
        {
          "internalType": "uint256",
          "name": "thresholdInit",
          "type": "uint256"
        },
        {
          "internalType": "uint256",
          "name": "thresholdEnd",
          "type": "uint256"
        },
        {
          "internalType": "uint256",
          "name": "blockInit",
          "type": "uint256"
        },
        {
          "internalType": "uint256",
          "name": "blockEnd",
          "type": "uint256"
        },
        {
          "internalType": "uint256",
          "name": "poolSize",
          "type": "uint256"
        },
        {
          "internalType": "enum IProde.EventState",
          "name": "state",
          "type": "uint8"
        }
      ],
      "stateMutability": "view",
      "type": "function"
    },
    {
      "inputs": [
        {
          "internalType": "uint256",
          "name": "eventId",
          "type": "uint256"
        }
      ],
      "name": "getEventWinners",
      "outputs": [
        {
          "internalType": "address[]",
          "name": "",
          "type": "address[]"
        }
      ],
      "stateMutability": "view",
      "type": "function"
    },
    {
      "inputs": [],
      "name": "getNGOCurrentPoolPrize",
      "outputs": [
        {
          "internalType": "uint256",
          "name": "",
          "type": "uint256"
        }
      ],
      "stateMutability": "view",
      "type": "function"
    },
    {
      "inputs": [],
      "name": "globalPoolSize",
      "outputs": [
        {
          "internalType": "uint256",
          "name": "",
          "type": "uint256"
        }
      ],
      "stateMutability": "view",
      "type": "function"
    },
    {
      "inputs": [
        {
          "internalType": "address",
          "name": "",
          "type": "address"
        }
      ],
      "name": "hitters",
      "outputs": [
        {
          "internalType": "uint256",
          "name": "",
          "type": "uint256"
        }
      ],
      "stateMutability": "view",
      "type": "function"
    },
    {
      "inputs": [
        {
          "internalType": "address",
          "name": "user",
          "type": "address"
        }
      ],
      "name": "isWinner",
      "outputs": [
        {
          "internalType": "bool",
          "name": "",
          "type": "bool"
        }
      ],
      "stateMutability": "view",
      "type": "function"
    },
    {
      "inputs": [],
      "name": "maxEvents",
      "outputs": [
        {
          "internalType": "uint256",
          "name": "",
          "type": "uint256"
        }
      ],
      "stateMutability": "view",
      "type": "function"
    },
    {
      "inputs": [],
      "name": "minWinnerPoints",
      "outputs": [
        {
          "internalType": "uint256",
          "name": "",
          "type": "uint256"
        }
      ],
      "stateMutability": "view",
      "type": "function"
    },
    {
      "inputs": [],
      "name": "ngoPrize",
      "outputs": [
        {
          "internalType": "uint256",
          "name": "",
          "type": "uint256"
        }
      ],
      "stateMutability": "view",
      "type": "function"
    },
    {
      "inputs": [],
      "name": "oracle",
      "outputs": [
        {
          "internalType": "address",
          "name": "",
          "type": "address"
        }
      ],
      "stateMutability": "view",
      "type": "function"
    },
    {
      "inputs": [],
      "name": "owner",
      "outputs": [
        {
          "internalType": "address",
          "name": "",
          "type": "address"
        }
      ],
      "stateMutability": "view",
      "type": "function"
    },
    {
      "inputs": [
        {
          "internalType": "uint256",
          "name": "eventId",
          "type": "uint256"
        },
        {
          "internalType": "enum IProde.BetOdd",
          "name": "bet",
          "type": "uint8"
        },
        {
          "internalType": "uint256",
          "name": "amount",
          "type": "uint256"
        }
      ],
      "name": "placeBet",
      "outputs": [],
      "stateMutability": "nonpayable",
      "type": "function"
    },
    {
      "inputs": [
        {
          "internalType": "uint256",
          "name": "eventId",
          "type": "uint256"
        }
      ],
      "name": "pokeOracle",
      "outputs": [],
      "stateMutability": "nonpayable",
      "type": "function"
    },
    {
      "inputs": [],
      "name": "renounceOwnership",
      "outputs": [],
      "stateMutability": "nonpayable",
      "type": "function"
    },
    {
      "inputs": [
        {
          "internalType": "uint256",
          "name": "_newMinWinnerPoints",
          "type": "uint256"
        }
      ],
      "name": "setMinWinnerPoints",
      "outputs": [],
      "stateMutability": "nonpayable",
      "type": "function"
    },
    {
      "inputs": [],
      "name": "setPrizes",
      "outputs": [],
      "stateMutability": "nonpayable",
      "type": "function"
    },
    {
      "inputs": [
        {
          "internalType": "uint256",
          "name": "eventId",
          "type": "uint256"
        }
      ],
      "name": "startEvent",
      "outputs": [],
      "stateMutability": "nonpayable",
      "type": "function"
    },
    {
      "inputs": [
        {
          "internalType": "uint256",
          "name": "eventId",
          "type": "uint256"
        }
      ],
      "name": "stopEventBetWindow",
      "outputs": [],
      "stateMutability": "nonpayable",
      "type": "function"
    },
    {
      "inputs": [],
      "name": "token",
      "outputs": [
        {
          "internalType": "address",
          "name": "",
          "type": "address"
        }
      ],
      "stateMutability": "view",
      "type": "function"
    },
    {
      "inputs": [
        {
          "internalType": "address",
          "name": "newOwner",
          "type": "address"
        }
      ],
      "name": "transferOwnership",
      "outputs": [],
      "stateMutability": "nonpayable",
      "type": "function"
    },
    {
      "inputs": [
        {
          "internalType": "uint256",
          "name": "eventId",
          "type": "uint256"
        }
      ],
      "name": "updateResults",
      "outputs": [],
      "stateMutability": "nonpayable",
      "type": "function"
    },
    {
      "inputs": [
        {
          "internalType": "address",
          "name": "",
          "type": "address"
        },
        {
          "internalType": "uint256",
          "name": "",
          "type": "uint256"
        }
      ],
      "name": "usersByEvent",
      "outputs": [
        {
          "internalType": "uint256",
          "name": "",
          "type": "uint256"
        }
      ],
      "stateMutability": "view",
      "type": "function"
    },
    {
      "inputs": [],
      "name": "winnerPrize",
      "outputs": [
        {
          "internalType": "uint256",
          "name": "",
          "type": "uint256"
        }
      ],
      "stateMutability": "view",
      "type": "function"
    },
    {
      "inputs": [],
      "name": "winners",
      "outputs": [
        {
          "internalType": "uint256",
          "name": "",
          "type": "uint256"
        }
      ],
      "stateMutability": "view",
      "type": "function"
    }
  ],
  "transactionHash": "0x34b30ddfe990299cf57f413471f444d4f515dc49558c0e4a54079aa1579c0e02",
  "args": [
    "0xe7f1725E7734CE288F8367e1Bb143E90bb3F0512",
    "0x58eFdc4236465a87c996eb12751151a6084181f9",
    "0x5FbDB2315678afecb367f032d93F642f64180aa3",
    100,
    100,
    10
  ],
  "numDeployments": 1,
  "solcInputHash": "cf3eb7e7b9b6e29a4fa8645c98f17f07",
  "bytecode": "0x60e06040523480156200001157600080fd5b5060405162002c0438038062002c048339810160408190526200003491620002af565b6200003f3362000242565b6001600160a01b0386166200009b5760405162461bcd60e51b815260206004820152601560248201527f494e56414c494420544f4b454e2041444452455353000000000000000000000060448201526064015b60405180910390fd5b6001600160a01b038516620000f35760405162461bcd60e51b815260206004820152601360248201527f494e56414c4944204e474f204144445245535300000000000000000000000000604482015260640162000092565b6001600160a01b0384166200014b5760405162461bcd60e51b815260206004820152601660248201527f494e56414c4944204f5241434c45204144445245535300000000000000000000604482015260640162000092565b600081116200019d5760405162461bcd60e51b815260206004820152601960248201527f494e56414c4944204d494e2057494e4e455220504f494e545300000000000000604482015260640162000092565b60c08281526004829055600180546001600160a01b038981166001600160a01b03199283168117909355888116608081815260a089815260028054948c169490951684179094556040805195865260208601929092529084019190915260608301879052820185905281018390527fb0e2a99e9b2ebc639d76c1769ea3bb56f24405fea8dc23ca53da9f0909c799f9910160405180910390a150505050505062000315565b600080546001600160a01b038381166001600160a01b0319831681178455604051919092169283917f8be0079c531659141344cd1fd0a4f28419497f9722a3daafe3b4186f6b6457e09190a35050565b80516001600160a01b0381168114620002aa57600080fd5b919050565b60008060008060008060c08789031215620002c957600080fd5b620002d48762000292565b9550620002e46020880162000292565b9450620002f46040880162000292565b9350606087015192506080870151915060a087015190509295509295509295565b60805160a05160c051612864620003a0600039600081816102640152818161047a015281816108bb01528181610c5501528181610dd101528181610f120152818161101a015281816112740152818161140701526117db0152600081816102a90152818161135401526117a301526000818161033001528181610b500152610cb201526128646000f3fe608060405234801561001057600080fd5b50600436106101da5760003560e01c80639bfe580711610104578063bddb5def116100a2578063e32d7b1b11610071578063e32d7b1b14610420578063e5e9b66114610428578063f2fde38b1461043b578063fc0c546a1461044e57600080fd5b8063bddb5def146103df578063d48bf143146103f2578063da866c48146103fa578063deb7f5801461040d57600080fd5b8063a487bcd8116100de578063a487bcd814610390578063a59a695314610399578063a62863a8146103ac578063b8cf1d17146103bf57600080fd5b80639bfe5807146103525780639d9ca28d1461035a578063a13dc4a31461037d57600080fd5b8063644679d31161017c5780637dc0d1d01161014b5780637dc0d1d0146102e65780638da5cb5b146103115780638e7d5ccc14610322578063937d7f111461032b57600080fd5b8063644679d31461029b578063662c0fb1146102a45780636f8784e1146102cb578063715018a6146102de57600080fd5b80631d0f6de9116101b85780631d0f6de91461024d5780632017aa2f146102565780634f0a3ffa1461025f57806363bcda291461028657600080fd5b8063018091ce146101df5780630b791430146102055780630fb599081461022d575b600080fd5b6101f26101ed366004612308565b610461565b6040519081526020015b60405180910390f35b610218610213366004612345565b610668565b6040516101fc999897969594939291906123cc565b61024061023b366004612345565b610744565b6040516101fc9190612437565b6101f260075481565b6101f260065481565b6101f27f000000000000000000000000000000000000000000000000000000000000000081565b610299610294366004612345565b6108b8565b005b6101f260035481565b6101f27f000000000000000000000000000000000000000000000000000000000000000081565b6102996102d9366004612345565b610a94565b610299610b31565b6002546102f9906001600160a01b031681565b6040516001600160a01b0390911681526020016101fc565b6000546001600160a01b03166102f9565b6101f260045481565b6102f97f000000000000000000000000000000000000000000000000000000000000000081565b610299610b45565b61036d610368366004612484565b610d14565b60405190151581526020016101fc565b6101f261038b3660046124a1565b610d9d565b6101f260055481565b6102996103a7366004612345565b610dce565b6102996103ba366004612345565b610f0f565b6101f26103cd366004612484565b600a6020526000908152604090205481565b6102996103ed366004612345565b611017565b610299611272565b6102996104083660046124cd565b611404565b61029961041b366004612509565b61178f565b6101f261179a565b610299610436366004612484565b6117d9565b610299610449366004612484565b611947565b6001546102f9906001600160a01b031681565b600061046b6119bd565b600061047660085490565b90507f00000000000000000000000000000000000000000000000000000000000000008111156104ed5760405162461bcd60e51b815260206004820152601e60248201527f50524f4445583a2043414e4e4f5420414444204d4f5245204556454e5453000060448201526064015b60405180910390fd5b6104fb600880546001019055565b600061050660085490565b905061051184611a17565b600080855260e085018190526101608501819052506000818152600c6020908152604091829020865181548389015160ff166101000261ff00199215159290921661ffff1990911617178155918601518051879392610577926001850192910190611f24565b50606082015160028201556080820151600382015560a0820151600482015560c0820151600582015560e0820151600682015561010082015180516105c6916007840191602090910190611fa8565b5061012082015180516105e3916008840191602090910190611fa8565b506101408201518051610600916009840191602090910190611fa8565b50610160820151600a8201805460ff19166001836004811115610625576106256123b6565b0217905550506040518281527f748ff5cfd7b66bdd8e21581c2a864756fe7085378c0003183e579bfafba28325915060200160405180910390a19150505b919050565b600c602052600090815260409020805460018201805460ff8084169461010090940416929190610697906125ba565b80601f01602080910402602001604051908101604052809291908181526020018280546106c3906125ba565b80156107105780601f106106e557610100808354040283529160200191610710565b820191906000526020600020905b8154815290600101906020018083116106f357829003601f168201915b50505060028401546003850154600486015460058701546006880154600a9098015496979396929550909350919060ff1689565b6000818152600c6020526040902054606090610100900460ff16806107d1576000838152600c6020908152604091829020600701805483518184028101840190945280845290918301828280156107c457602002820191906000526020600020905b81546001600160a01b031681526001909101906020018083116107a6575b5050505050915050919050565b8060011415610846576000838152600c6020908152604091829020600801805483518184028101840190945280845290918301828280156107c4576020028201919060005260206000209081546001600160a01b031681526001909101906020018083116107a6575050505050915050919050565b6000838152600c6020908152604091829020600901805483518184028101840190945280845290918301828280156107c4576020028201919060005260206000209081546001600160a01b031681526001909101906020018083116107a6575050505050915050919050565b50919050565b807f000000000000000000000000000000000000000000000000000000000000000081111580156108f757506000818152600c602052604090205460ff165b6109135760405162461bcd60e51b81526004016104e4906125ef565b60036000838152600c60205260409020600a015460ff16600481111561093b5761093b6123b6565b1461094557600080fd5b600061095083610744565b905060005b8151811015610a23576001600a600084848151811061097657610976612626565b60200260200101516001600160a01b03166001600160a01b0316815260200190815260200160002060008282546109ad9190612652565b92505081905550600454600a60008484815181106109cd576109cd612626565b60200260200101516001600160a01b03166001600160a01b031681526020019081526020016000205410610a115760058054906000610a0b8361266a565b91905055505b80610a1b8161266a565b915050610955565b506000838152600c60205260409020600a8101805460ff19908116600417909155815416905560098054600101905580516040805185815260208101929092527ffcda307a899d09c000f956ef8043cc643f341cd56a5d5b9d14dc50800014bbbf91015b60405180910390a1505050565b610a9c6119bd565b60008111610aec5760405162461bcd60e51b815260206004820152601960248201527f494e56414c4944204d494e2057494e4e455220504f494e54530000000000000060448201526064016104e4565b6004819055604080518281526020810183905282917fdbbc0a1afd7b8c69afab2bfa10dc6b361a85d5d24feab70d0a0b60ee9b52409991015b60405180910390a15050565b610b396119bd565b610b436000611bd9565b565b336001600160a01b037f0000000000000000000000000000000000000000000000000000000000000000161480610bfd5750306001600160a01b0316638da5cb5b6040518163ffffffff1660e01b815260040160206040518083038186803b158015610bb057600080fd5b505afa158015610bc4573d6000803e3d6000fd5b505050506040513d601f19601f82011682018060405250810190610be89190612685565b6001600160a01b0316336001600160a01b0316145b610c535760405162461bcd60e51b815260206004820152602160248201527f50524f4445583a204e4f54204e474f204f5220434f4e5452414354204f574e456044820152602960f91b60648201526084016104e4565b7f0000000000000000000000000000000000000000000000000000000000000000610c7d60095490565b14610c9a5760405162461bcd60e51b81526004016104e4906126a2565b600754600154610cd7916001600160a01b03909116907f000000000000000000000000000000000000000000000000000000000000000090611c29565b7fdd3ff36cd65aa18ad7b2f7f860b71048c171b35a5b470c8c188abaf345db6752600754604051610d0a91815260200190565b60405180910390a1565b60006001600160a01b038216610d6c5760405162461bcd60e51b815260206004820152601760248201527f50524f4445583a20494e56414c4944204144445245535300000000000000000060448201526064016104e4565b6004546001600160a01b0383166000908152600a602052604090205410610d9557506001919050565b506000919050565b600b6020528160005260406000208181548110610db957600080fd5b90600052602060002001600091509150505481565b807f00000000000000000000000000000000000000000000000000000000000000008111158015610e0d57506000818152600c602052604090205460ff165b610e295760405162461bcd60e51b81526004016104e4906125ef565b6000828152600c602052604090206002810154600490910154610e4c91906126f5565b421015610e9b5760405162461bcd60e51b815260206004820152601d60248201527f50524f4445583a2043414e4e4f5420494e4954204556454e542059455400000060448201526064016104e4565b6000828152600c60209081526040918290208054600160ff1991821681178355600a830180549092161790556004810154600590910154835186815292830191909152918101919091527f809e0371ce4656ff03837f283d2a15eb489a2cb6c8ab78f9a3fb530382ac937290606001610b25565b807f00000000000000000000000000000000000000000000000000000000000000008111158015610f4e57506000818152600c602052604090205460ff165b610f6a5760405162461bcd60e51b81526004016104e4906125ef565b6000828152600c60205260409020600401544211610fca5760405162461bcd60e51b815260206004820181905260248201527f50524f4445583a204245545320415245205354494c4c20415641494c41424c4560448201526064016104e4565b6000828152600c6020908152604091829020600a01805460ff1916600217905590518381527f10e025aa48a4e29ce69517c168b6bc06b4d5557de0881408559617166b97c9379101610b25565b807f0000000000000000000000000000000000000000000000000000000000000000811115801561105657506000818152600c602052604090205460ff165b6110725760405162461bcd60e51b81526004016104e4906125ef565b60026000838152600c60205260409020600a015460ff16600481111561109a5761109a6123b6565b146111015760405162461bcd60e51b815260206004820152603160248201527f50524f4445583a204556454e5420535441544520444f4553204e4f5420414c4c6044820152704f5720544f20504f4b45204f5241434c4560781b60648201526084016104e4565b6000828152600c6020526040902060038101546005909101546111249190612652565b42116111845760405162461bcd60e51b815260206004820152602960248201527f50524f4445583a204954204953204e4f542054494d4520544f20504f4b45204f604482015268149050d3114816515560ba1b60648201526084016104e4565b60025460405163c60d2d8f60e01b8152600481018490526000916001600160a01b03169063c60d2d8f90602401602060405180830381600087803b1580156111cb57600080fd5b505af11580156111df573d6000803e3d6000fd5b505050506040513d601f19601f82011682018060405250810190611203919061270c565b6000848152600c60205260409020805461ff00191661010060ff841602178155600a01805491925060039160ff191660018302179055506040805184815260ff831660208201527fa5c0ca580aac8c1d6965dc5f2c4610296fa04c70daf0fa2b77cd2bd1a05ce4499101610a87565b7f000000000000000000000000000000000000000000000000000000000000000061129c60095490565b146113045760405162461bcd60e51b815260206004820152603260248201527f50524f4445583a20414c4c204556454e5453204d5553542042452050524f43456044820152715353454420544f20534554205052495a455360701b60648201526084016104e4565b60006005541161134b5760405162461bcd60e51b815260206004820152601260248201527150524f4445583a204e4f2057494e4e45525360701b60448201526064016104e4565b600060646113797f0000000000000000000000000000000000000000000000000000000000000000826126f5565b6113839190612729565b600354611390919061274b565b9050600554816113a09190612729565b6006556003546113b19082906126f5565b60078190556006546005546040805193845260208401929092528282018490526060830152517fb5f42caf22528a8a83e8e0252f5b55b8a28bdbd78000b04b6f516f742892f0049181900360800190a150565b827f0000000000000000000000000000000000000000000000000000000000000000811115801561144357506000818152600c602052604090205460ff165b61145f5760405162461bcd60e51b81526004016104e4906125ef565b6000848152600c602052604090205460ff166114bd5760405162461bcd60e51b815260206004820152601860248201527f50524f4445583a204556454e54204e4f5420414354495645000000000000000060448201526064016104e4565b6000848152600c602052604090206004015442111561151e5760405162461bcd60e51b815260206004820152601860248201527f50524f4445583a204245542054494d452045585049524544000000000000000060448201526064016104e4565b336000908152600b6020526040902080548590811061153f5761153f612626565b90600052602060002001546000146115b25760405162461bcd60e51b815260206004820152603060248201527f50524f4445583a20555345522043414e4e4f5420424554204d4f52452054484160448201526f138813d390d14814115488115591539560821b60648201526084016104e4565b6000821161161a5760405162461bcd60e51b815260206004820152602f60248201527f50524f4445583a20414d4f554e5420544f20424554204d55535420424520475260448201526e4541544552205448414e205a45524f60881b60648201526084016104e4565b6000848152600c60205260408120600601805484929061163b908490612652565b9250508190555081600360008282546116549190612652565b909155506000905083600281111561166e5761166e6123b6565b14156116aa576000848152600c602090815260408220600701805460018101825590835291200180546001600160a01b0319163317905561172c565b60028360028111156116be576116be6123b6565b14156116fa576000848152600c602090815260408220600801805460018101825590835291200180546001600160a01b0319163317905561172c565b6000848152600c602090815260408220600901805460018101825590835291200180546001600160a01b031916331790555b600154611744906001600160a01b0316333085611c91565b336001600160a01b03167f4f1eed5e863a822b0f9eb960dfdab2cc5a99beec4b191f2a7a9c7e28e5a155248585856040516117819392919061276a565b60405180910390a250505050565b6117976119bd565b50565b60006117c760647f0000000000000000000000000000000000000000000000000000000000000000612729565b6003546117d4919061274b565b905090565b7f000000000000000000000000000000000000000000000000000000000000000061180360095490565b146118205760405162461bcd60e51b81526004016104e4906126a2565b6000600654116118725760405162461bcd60e51b815260206004820152601a60248201527f50524f4445583a2057494e45525052495a45204e4f542053455400000000000060448201526064016104e4565b600454336000908152600a602052604090205410156118e45760405162461bcd60e51b815260206004820152602860248201527f50524f4445583a2055534552204e4f5420454c454749424c4520544f20434c41604482015267494d205052495a4560c01b60648201526084016104e4565b600654600154611901916001600160a01b03909116908390611c29565b336000818152600a6020526040808220829055516001600160a01b03841692917f4863e8ddbb1d47b2d2751f70a49813cf77503f5e78317defca7727512c95cd9c91a350565b61194f6119bd565b6001600160a01b0381166119b45760405162461bcd60e51b815260206004820152602660248201527f4f776e61626c653a206e6577206f776e657220697320746865207a65726f206160448201526564647265737360d01b60648201526084016104e4565b61179781611bd9565b6000546001600160a01b03163314610b435760405162461bcd60e51b815260206004820181905260248201527f4f776e61626c653a2063616c6c6572206973206e6f7420746865206f776e657260448201526064016104e4565b428160a0015111611a885760405162461bcd60e51b815260206004820152603560248201527f50524f4445583a20494e495420424c4f434b204d5553542042452047524541546044820152744552205448414e2043555252454e5420424c4f434b60581b60648201526084016104e4565b428160c0015111611af85760405162461bcd60e51b815260206004820152603460248201527f50524f4445583a20454e4420424c4f434b204d5553542042452047524541544560448201527352205448414e2043555252454e5420424c4f434b60601b60648201526084016104e4565b8060a001518160c001511015611b6d5760405162461bcd60e51b815260206004820152603460248201527f50524f4445583a204d415443482043414e4e4f5420454e44204245464f52452060448201527326a0aa21a41024a724aa24a0a624ad20aa24a7a760611b60648201526084016104e4565b6101008101515115611b915760405162461bcd60e51b81526004016104e490612792565b6101208101515115611bb55760405162461bcd60e51b81526004016104e490612792565b61014081015151156117975760405162461bcd60e51b81526004016104e490612792565b600080546001600160a01b038381166001600160a01b0319831681178455604051919092169283917f8be0079c531659141344cd1fd0a4f28419497f9722a3daafe3b4186f6b6457e09190a35050565b6040516001600160a01b038316602482015260448101829052611c8c90849063a9059cbb60e01b906064015b60408051601f198184030181529190526020810180516001600160e01b03166001600160e01b031990931692909217909152611ccf565b505050565b6040516001600160a01b0380851660248301528316604482015260648101829052611cc99085906323b872dd60e01b90608401611c55565b50505050565b6000611d24826040518060400160405280602081526020017f5361666545524332303a206c6f772d6c6576656c2063616c6c206661696c6564815250856001600160a01b0316611da19092919063ffffffff16565b805190915015611c8c5780806020019051810190611d4291906127e2565b611c8c5760405162461bcd60e51b815260206004820152602a60248201527f5361666545524332303a204552433230206f7065726174696f6e20646964206e6044820152691bdd081cdd58d8d9595960b21b60648201526084016104e4565b6060611db08484600085611dba565b90505b9392505050565b606082471015611e1b5760405162461bcd60e51b815260206004820152602660248201527f416464726573733a20696e73756666696369656e742062616c616e636520666f6044820152651c8818d85b1b60d21b60648201526084016104e4565b6001600160a01b0385163b611e725760405162461bcd60e51b815260206004820152601d60248201527f416464726573733a2063616c6c20746f206e6f6e2d636f6e747261637400000060448201526064016104e4565b600080866001600160a01b03168587604051611e8e91906127ff565b60006040518083038185875af1925050503d8060008114611ecb576040519150601f19603f3d011682016040523d82523d6000602084013e611ed0565b606091505b5091509150611ee0828286611eeb565b979650505050505050565b60608315611efa575081611db3565b825115611f0a5782518084602001fd5b8160405162461bcd60e51b81526004016104e4919061281b565b828054611f30906125ba565b90600052602060002090601f016020900481019282611f525760008555611f98565b82601f10611f6b57805160ff1916838001178555611f98565b82800160010185558215611f98579182015b82811115611f98578251825591602001919060010190611f7d565b50611fa4929150611ffd565b5090565b828054828255906000526020600020908101928215611f98579160200282015b82811115611f9857825182546001600160a01b0319166001600160a01b03909116178255602090920191600190910190611fc8565b5b80821115611fa45760008155600101611ffe565b634e487b7160e01b600052604160045260246000fd5b604051610180810167ffffffffffffffff8111828210171561204c5761204c612012565b60405290565b604051601f8201601f1916810167ffffffffffffffff8111828210171561207b5761207b612012565b604052919050565b801515811461179757600080fd5b803561066381612083565b60ff8116811461179757600080fd5b80356106638161209c565b600082601f8301126120c757600080fd5b813567ffffffffffffffff8111156120e1576120e1612012565b6120f4601f8201601f1916602001612052565b81815284602083860101111561210957600080fd5b816020850160208301376000918101602001919091529392505050565b600067ffffffffffffffff82111561214057612140612012565b5060051b60200190565b6001600160a01b038116811461179757600080fd5b600082601f83011261217057600080fd5b8135602061218561218083612126565b612052565b82815260059290921b840181019181810190868411156121a457600080fd5b8286015b848110156121c85780356121bb8161214a565b83529183019183016121a8565b509695505050505050565b80356005811061066357600080fd5b600061018082840312156121f557600080fd5b6121fd612028565b905061220882612091565b8152612216602083016120ab565b6020820152604082013567ffffffffffffffff8082111561223657600080fd5b612242858386016120b6565b6040840152606084013560608401526080840135608084015260a084013560a084015260c084013560c084015260e084013560e08401526101009150818401358181111561228f57600080fd5b61229b8682870161215f565b8385015250610120915081840135818111156122b657600080fd5b6122c28682870161215f565b8385015250610140915081840135818111156122dd57600080fd5b6122e98682870161215f565b838501525050506101606122fe8184016121d3565b9082015292915050565b60006020828403121561231a57600080fd5b813567ffffffffffffffff81111561233157600080fd5b61233d848285016121e2565b949350505050565b60006020828403121561235757600080fd5b5035919050565b60005b83811015612379578181015183820152602001612361565b83811115611cc95750506000910152565b600081518084526123a281602086016020860161235e565b601f01601f19169290920160200192915050565b634e487b7160e01b600052602160045260246000fd5b60006101208b1515835260ff8b1660208401528060408401526123f18184018b61238a565b9150508760608301528660808301528560a08301528460c08301528360e083015260058310612422576124226123b6565b826101008301529a9950505050505050505050565b6020808252825182820181905260009190848201906040850190845b818110156124785783516001600160a01b031683529284019291840191600101612453565b50909695505050505050565b60006020828403121561249657600080fd5b8135611db38161214a565b600080604083850312156124b457600080fd5b82356124bf8161214a565b946020939093013593505050565b6000806000606084860312156124e257600080fd5b833592506020840135600381106124f857600080fd5b929592945050506040919091013590565b6000602080838503121561251c57600080fd5b823567ffffffffffffffff8082111561253457600080fd5b818501915085601f83011261254857600080fd5b813561255661218082612126565b81815260059190911b8301840190848101908883111561257557600080fd5b8585015b838110156125ad578035858111156125915760008081fd5b61259f8b89838a01016121e2565b845250918601918601612579565b5098975050505050505050565b600181811c908216806125ce57607f821691505b602082108114156108b257634e487b7160e01b600052602260045260246000fd5b6020808252601e908201527f494e56414c4944204556454e54204944204f52204e4f54204143544956450000604082015260600190565b634e487b7160e01b600052603260045260246000fd5b634e487b7160e01b600052601160045260246000fd5b600082198211156126655761266561263c565b500190565b600060001982141561267e5761267e61263c565b5060010190565b60006020828403121561269757600080fd5b8151611db38161214a565b60208082526033908201527f50524f4445583a20414c4c204556454e5453204d5553542042452050524f43456040820152725353454420544f20434c41494d205052495a4560681b606082015260800190565b6000828210156127075761270761263c565b500390565b60006020828403121561271e57600080fd5b8151611db38161209c565b60008261274657634e487b7160e01b600052601260045260246000fd5b500490565b60008160001904831182151516156127655761276561263c565b500290565b8381526060810160038410612781576127816123b6565b602082019390935260400152919050565b60208082526030908201527f50524f4445583a204d415443482043414e4e4f5420484156452042455453204f60408201526f271024a724aa24a0a624ad20aa24a7a760811b606082015260800190565b6000602082840312156127f457600080fd5b8151611db381612083565b6000825161281181846020870161235e565b9190910192915050565b602081526000611db3602083018461238a56fea2646970667358221220d2965c807beb18efb88aa67fc55da0c907c991d7bdbf7913c4e9a97f363ece6e64736f6c63430008090033",
  "devdoc": {
    "kind": "dev",
    "methods": {
      "owner()": {
        "details": "Returns the address of the current owner."
      },
      "renounceOwnership()": {
        "details": "Leaves the contract without owner. It will not be possible to call `onlyOwner` functions anymore. Can only be called by the current owner. NOTE: Renouncing ownership will leave the contract without an owner, thereby removing any functionality that is only available to the owner."
      },
      "transferOwnership(address)": {
        "details": "Transfers ownership of the contract to a new account (`newOwner`). Can only be called by the current owner."
      }
    },
    "version": 1
  },
  "userdoc": {
    "kind": "user",
    "methods": {
      "addEvents((bool,uint8,string,uint256,uint256,uint256,uint256,uint256,address[],address[],address[],uint8)[])": {
        "notice": "TODO SATURDAY "
      }
    },
    "version": 1
  },
  "storageLayout": {
    "storage": [
      {
        "astId": 7,
        "contract": "contracts/Prodex.sol:Prodex",
        "label": "_owner",
        "offset": 0,
        "slot": "0",
        "type": "t_address"
      },
      {
        "astId": 2544,
        "contract": "contracts/Prodex.sol:Prodex",
        "label": "token",
        "offset": 0,
        "slot": "1",
        "type": "t_address"
      },
      {
        "astId": 2546,
        "contract": "contracts/Prodex.sol:Prodex",
        "label": "oracle",
        "offset": 0,
        "slot": "2",
        "type": "t_address"
      },
      {
        "astId": 2552,
        "contract": "contracts/Prodex.sol:Prodex",
        "label": "globalPoolSize",
        "offset": 0,
        "slot": "3",
        "type": "t_uint256"
      },
      {
        "astId": 2556,
        "contract": "contracts/Prodex.sol:Prodex",
        "label": "minWinnerPoints",
        "offset": 0,
        "slot": "4",
        "type": "t_uint256"
      },
      {
        "astId": 2558,
        "contract": "contracts/Prodex.sol:Prodex",
        "label": "winners",
        "offset": 0,
        "slot": "5",
        "type": "t_uint256"
      },
      {
        "astId": 2560,
        "contract": "contracts/Prodex.sol:Prodex",
        "label": "winnerPrize",
        "offset": 0,
        "slot": "6",
        "type": "t_uint256"
      },
      {
        "astId": 2562,
        "contract": "contracts/Prodex.sol:Prodex",
        "label": "ngoPrize",
        "offset": 0,
        "slot": "7",
        "type": "t_uint256"
      },
      {
        "astId": 2565,
        "contract": "contracts/Prodex.sol:Prodex",
        "label": "_eventIdCounter",
        "offset": 0,
        "slot": "8",
        "type": "t_struct(Counter)1983_storage"
      },
      {
        "astId": 2568,
        "contract": "contracts/Prodex.sol:Prodex",
        "label": "_eventIdProcessedCounter",
        "offset": 0,
        "slot": "9",
        "type": "t_struct(Counter)1983_storage"
      },
      {
        "astId": 2572,
        "contract": "contracts/Prodex.sol:Prodex",
        "label": "hitters",
        "offset": 0,
        "slot": "10",
        "type": "t_mapping(t_address,t_uint256)"
      },
      {
        "astId": 2577,
        "contract": "contracts/Prodex.sol:Prodex",
        "label": "usersByEvent",
        "offset": 0,
        "slot": "11",
        "type": "t_mapping(t_address,t_array(t_uint256)dyn_storage)"
      },
      {
        "astId": 2582,
        "contract": "contracts/Prodex.sol:Prodex",
        "label": "events",
        "offset": 0,
        "slot": "12",
        "type": "t_mapping(t_uint256,t_struct(Event)2740_storage)"
      }
    ],
    "types": {
      "t_address": {
        "encoding": "inplace",
        "label": "address",
        "numberOfBytes": "20"
      },
      "t_array(t_address)dyn_storage": {
        "base": "t_address",
        "encoding": "dynamic_array",
        "label": "address[]",
        "numberOfBytes": "32"
      },
      "t_array(t_uint256)dyn_storage": {
        "base": "t_uint256",
        "encoding": "dynamic_array",
        "label": "uint256[]",
        "numberOfBytes": "32"
      },
      "t_bool": {
        "encoding": "inplace",
        "label": "bool",
        "numberOfBytes": "1"
      },
      "t_enum(EventState)3576": {
        "encoding": "inplace",
        "label": "enum IProde.EventState",
        "numberOfBytes": "1"
      },
      "t_mapping(t_address,t_array(t_uint256)dyn_storage)": {
        "encoding": "mapping",
        "key": "t_address",
        "label": "mapping(address => uint256[])",
        "numberOfBytes": "32",
        "value": "t_array(t_uint256)dyn_storage"
      },
      "t_mapping(t_address,t_uint256)": {
        "encoding": "mapping",
        "key": "t_address",
        "label": "mapping(address => uint256)",
        "numberOfBytes": "32",
        "value": "t_uint256"
      },
      "t_mapping(t_uint256,t_struct(Event)2740_storage)": {
        "encoding": "mapping",
        "key": "t_uint256",
        "label": "mapping(uint256 => struct Prodex.Event)",
        "numberOfBytes": "32",
        "value": "t_struct(Event)2740_storage"
      },
      "t_string_storage": {
        "encoding": "bytes",
        "label": "string",
        "numberOfBytes": "32"
      },
      "t_struct(Counter)1983_storage": {
        "encoding": "inplace",
        "label": "struct Counters.Counter",
        "members": [
          {
            "astId": 1982,
            "contract": "contracts/Prodex.sol:Prodex",
            "label": "_value",
            "offset": 0,
            "slot": "0",
            "type": "t_uint256"
          }
        ],
        "numberOfBytes": "32"
      },
      "t_struct(Event)2740_storage": {
        "encoding": "inplace",
        "label": "struct Prodex.Event",
        "members": [
          {
            "astId": 2713,
            "contract": "contracts/Prodex.sol:Prodex",
            "label": "active",
            "offset": 0,
            "slot": "0",
            "type": "t_bool"
          },
          {
            "astId": 2715,
            "contract": "contracts/Prodex.sol:Prodex",
            "label": "eventOutcome",
            "offset": 1,
            "slot": "0",
            "type": "t_uint8"
          },
          {
            "astId": 2717,
            "contract": "contracts/Prodex.sol:Prodex",
            "label": "name",
            "offset": 0,
            "slot": "1",
            "type": "t_string_storage"
          },
          {
            "astId": 2719,
            "contract": "contracts/Prodex.sol:Prodex",
            "label": "thresholdInit",
            "offset": 0,
            "slot": "2",
            "type": "t_uint256"
          },
          {
            "astId": 2721,
            "contract": "contracts/Prodex.sol:Prodex",
            "label": "thresholdEnd",
            "offset": 0,
            "slot": "3",
            "type": "t_uint256"
          },
          {
            "astId": 2723,
            "contract": "contracts/Prodex.sol:Prodex",
            "label": "blockInit",
            "offset": 0,
            "slot": "4",
            "type": "t_uint256"
          },
          {
            "astId": 2725,
            "contract": "contracts/Prodex.sol:Prodex",
            "label": "blockEnd",
            "offset": 0,
            "slot": "5",
            "type": "t_uint256"
          },
          {
            "astId": 2727,
            "contract": "contracts/Prodex.sol:Prodex",
            "label": "poolSize",
            "offset": 0,
            "slot": "6",
            "type": "t_uint256"
          },
          {
            "astId": 2730,
            "contract": "contracts/Prodex.sol:Prodex",
            "label": "betTeamA",
            "offset": 0,
            "slot": "7",
            "type": "t_array(t_address)dyn_storage"
          },
          {
            "astId": 2733,
            "contract": "contracts/Prodex.sol:Prodex",
            "label": "betTeamB",
            "offset": 0,
            "slot": "8",
            "type": "t_array(t_address)dyn_storage"
          },
          {
            "astId": 2736,
            "contract": "contracts/Prodex.sol:Prodex",
            "label": "betDraw",
            "offset": 0,
            "slot": "9",
            "type": "t_array(t_address)dyn_storage"
          },
          {
            "astId": 2739,
            "contract": "contracts/Prodex.sol:Prodex",
            "label": "state",
            "offset": 0,
            "slot": "10",
            "type": "t_enum(EventState)3576"
          }
        ],
        "numberOfBytes": "352"
      },
      "t_uint256": {
        "encoding": "inplace",
        "label": "uint256",
        "numberOfBytes": "32"
      },
      "t_uint8": {
        "encoding": "inplace",
        "label": "uint8",
        "numberOfBytes": "1"
      }
    }
  }
}