{
  "address": "0x823179eDB6C0862f34E9036E0058311cB6F9E175",
  "abi": [
    {
      "inputs": [],
      "stateMutability": "nonpayable",
      "type": "constructor"
    },
    {
      "inputs": [],
      "name": "_randomNumbers",
      "outputs": [
        {
          "internalType": "contract IRNG",
          "name": "",
          "type": "address"
        }
      ],
      "stateMutability": "view",
      "type": "function"
    },
    {
      "inputs": [
        {
          "internalType": "uint256",
          "name": "eventId",
          "type": "uint256"
        }
      ],
      "name": "getEventResult",
      "outputs": [
        {
          "internalType": "uint8",
          "name": "",
          "type": "uint8"
        }
      ],
      "stateMutability": "nonpayable",
      "type": "function"
    },
    {
      "inputs": [],
      "name": "requestRandomNumber",
      "outputs": [
        {
          "internalType": "uint32",
          "name": "requestId",
          "type": "uint32"
        },
        {
          "internalType": "uint32",
          "name": "lockBlock",
          "type": "uint32"
        }
      ],
      "stateMutability": "nonpayable",
      "type": "function"
    }
  ],
  "transactionHash": "0xec41717d5d54dd4153afbd97cf257645bc96e04dac941500d779b4e9937558cf",
  "args": [],
  "numDeployments": 1,
  "solcInputHash": "bd2277640542b773a9bb850422c0b310",
  "bytecode": "0x608060405234801561001057600080fd5b50600080546001600160a01b031916731cdc2a4ff8d374d91a1161c142cc496fbf5547ec1790556101de806100466000396000f3fe608060405234801561001057600080fd5b50600436106100415760003560e01c8063246127f6146100465780638678a7b214610076578063c60d2d8f1461009b575b600080fd5b600054610059906001600160a01b031681565b6040516001600160a01b0390911681526020015b60405180910390f35b61007e6100c1565b6040805163ffffffff93841681529290911660208301520161006d565b6100af6100a936600461015c565b50600290565b60405160ff909116815260200161006d565b600080546040805163433c53d960e11b8152815184936001600160a01b031692638678a7b2926004808201939182900301818787803b15801561010357600080fd5b505af1158015610117573d6000803e3d6000fd5b505050506040513d601f19601f8201168201806040525081019061013b9190610175565b915091509091565b805163ffffffff8116811461015757600080fd5b919050565b60006020828403121561016e57600080fd5b5035919050565b6000806040838503121561018857600080fd5b61019183610143565b915061019f60208401610143565b9050925092905056fea2646970667358221220f895c66531ab9f29f70043bb19a17c5cc4ae803293cf9b7f1e1b21d161cb52fb64736f6c63430008060033",
  "devdoc": {
    "kind": "dev",
    "methods": {},
    "version": 1
  },
  "userdoc": {
    "kind": "user",
    "methods": {},
    "version": 1
  },
  "storageLayout": {
    "storage": [
      {
        "astId": 140,
        "contract": "contracts/Oracle.sol:Oracle",
        "label": "_randomNumbers",
        "offset": 0,
        "slot": "0",
        "type": "t_contract(IRNG)454"
      }
    ],
    "types": {
      "t_contract(IRNG)454": {
        "encoding": "inplace",
        "label": "contract IRNG",
        "numberOfBytes": "20"
      }
    }
  }
}